:10C00000CEC100DF00CE0100DF02DE00A600DE02AE
:10C01000A700088C10002709DF02DE0008DF0020DF
:10C02000E98639B77F007E0100FFFFFFFFFFFFFFBA
:10C03000FFFFFFFFFFFFFFFFFFFFFFFFFFFFFFFF10
:10C04000FFFFFFFFFFFFFFFFFFFFFFFFFFFFFFFF00
:10C05000FFFFFFFFFFFFFFFFFFFFFFFFFFFFFFFFF0
:10C06000FFFFFFFFFFFFFFFFFFFFFFFFFFFFFFFFE0
:10C07000FFFFFFFFFFFFFFFFFFFFFFFFFFFFFFFFD0
:10C08000FFFFFFFFFFFFFFFFFFFFFFFFFFFFFFFFC0
:10C09000FFFFFFFFFFFFFFFFFFFFFFFFFFFFFFFFB0
:10C0A000FFFFFFFFFFFFFFFFFFFFFFFFFFFFFFFFA0
:10C0B000FFFFFFFFFFFFFFFFFFFFFFFFFFFFFFFF90
:10C0C000FFFFFFFFFFFFFFFFFFFFFFFFFFFFFFFF80
:10C0D000FFFFFFFFFFFFFFFFFFFFFFFFFFFFFFFF70
:10C0E000FFFFFFFFFFFFFFFFFFFFFFFFFFFFFFFF60
:10C0F000FFFFFFFFFFFFFFFFFFFFFFFFFFFFFFFF50
:20C100007E01F07EF569BDF5207E04A27EFF50524904F8494E5007E749462009014C455407
:20C1200007C3464F5209C54E455809EC474F5407D1474F53097A4F4E2008C552455409A252
:20C140005245410875444154086652455308BB44494D06C245585407524D4F4EF400454E39
:20C1600044020D52454D075552554E07B04C4953043D53435201F000524E440B0F414253AA
:20C180000B0B53474E0B0300CE0100DF0ACE000C2008FE010CDF0AFE01004FA700089C0A42
:20C1A00026F9390D0A0A4D4943524F20424153494320504C55530D0A434F5059524947482A
:20C1C000542028432920313937362042590D0A544543484E4943414C2053595354454D53AB
:20C1E00020434F4E53554C54414E54530D0A0A048603B783008615B783008E7FFFCE01A386
:20C20000BD03418D83CE1000FF01008D858E7FFFCE0068DF0ABD018DCE0100EE00DF08CE35
:20C220000068BD033C8621BD049CBD032227DEA700810D2708088C00B026EF20D0CE0068CC
:20C24000BD0383DF31BD03CD4D261ADE04A600810D2608D62827B69712200ABD07962705F9
:20C2600086107E04B5963E9026973ED6282606BD033C7E0792FE010CDF37DE31DF04BD0283
:20C28000F7DF225D26205CA60008810D26F8F7029E86FF508D46DE22BC01002707A600A7D6
:20C2A000000820F4DE229612262FFE0100D63ECB02F702BE8D269C22270709A600A70020B9
:20C2C000F509BD06B90808DF22DE04A60008DF04DE2208A700810D26EE7E020DFB0101B9CC
:20C2E0000100D73A9739BD0D012407F70101B701003986907E04B59664D663CE1000BC0161
:20C300000026025C39E100220A26F8A101220426F25F398D030820E636860D08A10026FB8C
:20C320003239BD01068108260B8C0068270D097A003E20EE811827037C003E39DF22CE0395
:20C3400053A60081042706BD049C0820F4DE227F001D390D0A0000000004810D2702813A57
:20C3600039BD0BA04F976297639764398DF6972897279726BD03BA812B2707812D2604734A
:20C38000002708BD0D31C103270596277E0C39089728840FC6047800647900637900625AF2
:20C3A00026F49B6497647C002620D8DE04A600812027070820F78DB40908A600812027F9A0
:20C3C00039DE04BD0D31C10226F00820F68DEBDF04DF22CE010EC605A1002612DF0ADE228A
:20C3E00008A600DF22DE0A085AC10226EB39085A26FCA60027F7DF0ADE04DF22A600DE0A95
:20C4000020D4CE0062C6020CA6002A19862DBD049C7C001D200FA60085F025022707BD0432
:20C42000947C001D0DA600C5FF2706850F25022707BD04987C001D0D085A2ADA398D828114
:20C440000D2725BD036CDF04BD02F7DF22BD03C1810D26057C001B200B08BD03BABD036C13
:20C460009664971BDE222003CE1000BC01002721BD033CC6010C8D9EA600810D27058D1C07
:20C480000820F508961B27E38B99192704971B20DA7E020D44444444840F8B30BD01097E78
:20C4A000010336B68300840126023239B68301810326F7869936BD033CCE04EABD034132D6
:20C4C000368DD1328DD2D61926037E020DCE04F3BD0341DE04098C10002707A600810D26BD
:20C4E000F408C6010CBD041620E0074552524F522023042041542004BD03C1BD035A260321
:20C500007E058D7F0012812C261FD61D86208D8C5CC50726F7C1472204D71D2003BD033C50
:20C520007C001208BD03BA20D2813B27F381222605088D6420497F00178154260697178628
:20C540004120068153262E8650A1012628BD03C3BD0A75BD066FD6642725961727075AD109
:20C560001D231C2002DB1D8620BD049C7C001DD11D26F4200ABD0A75DF22BD0402DE22BDBA
:20C580000D2C5A26037E04FB86317E04B57D00122603BD033C7E0755A6008122270EBD03A8
:20C5A0005A270DBD049C7C001D0820EC087E03BA86327E04B5DF04BD0D33C102262F7F003A
:20C5C0002016481B80139721DE2039A600087F00188DE25FA600810A2706810B2701395C86
:20C5E000A60136A6023637BD03C133812826715D271308BD0A78966436BD0BB1BD03C181CC
:20C600002C265D20024F364C971808BD0A7808DF04329714329721329720DE20A600971696
:20C620000808DF20BD03619614DE2009A10022309764BD03619616915E270223238B01195B
:20C640009764BD0C43BD0C19BD06659620D621DB6499639720D721BD0BB1DE207F001839EB
:20C6600086147E04B5BD036186039764BD0C439664369663365FD763D76496628D12323606
:20C680008D0A328D0B32368D0332201D444444448D17D6634859373648594859976432D791
:20C6A000638D08329B63976339840F9B64976424037C0063399662A7009663A7019664A772
:20C6C0000239DE06DF37BD03C1BD03BABD05B5DF0ABD03C18128262008BD03B68129260507
:20C6E0004F5F362018812C260F9664270B3608BD03B6C6018129270586407E04B5966427A1
:20C70000F736DF04DE0A860A1BA7009608A7019609A702DE0832A7000833E70008DF208BCE
:20C72000011936178B011916BD0364D764BD0361329764BD0C43BD0648BD0CFF23037E02A5
:20C74000F2DF08DE0408BD03BABD035A2707087E06C9BD7F004F9712971C9718972C9619F7
:20C7600026037E020DDE04860DC63AA1002707E100270A0820F508BC010027E60808BD01F0
:20C7800009BD03CD4D260BDE048D0B270586107E04B5EE006E00BD0D31C102261208BD03F8
:20C7A000BA813D270481282606CE0120971C5F39BD0188BD0192FE010CDF06CE10007C00E7
:20C7C0001920B4DE04961C2603BD03ABBD09B42084BD03C1BD0A75BD02F75D270586167E10
:20C7E00004B55CD7192090BD03C17F0013BD03BA8122260608BD0598203BBD05CDDF33CEFC
:20C80000006896132607863F9713BD049CBD0106811826057F001320E6A70008812C270962
:20C82000810D26E99712BD033CCE0068BD036CDE338D2DDF04812C260708961227AF20AA7C
:20C84000BD035A2613961227037E0755BD0106810D26F9BD033C20F186457E04B5BD05CDCA
:20C86000BD06B57E03C196192749BD03C1971ADF0CDF0E203E9619273A961A2739BD03ABEC
:20C88000BD03BABD05CDDF33DE04DF35DE0EBD0A75A600BD035A2604DE0C200108DF0EDE97
:20C8A00035DF04DE338DB9812C26030820D2BD035A26037E075586517E04B5DF22DE0CDF44
:20C8C0000EDE2220EEBD03ABBD0A759664840F367F00120808A600815427029712BD03AD77
:20C8E000DF22324A2711E60008C12C2604DF2220F2C10D26F1DE22D61227037E09817E07E7
:20C90000D4BD03C1BD0A75A6008D63265C36A6018D5C322604E6011B080836BD0A75328412
:20C920000F80092B444848B70931BD0C13BD0D0C20FE2F1820302614202C2C1020282D0CC5
:20C940002024270820202E04201C201DDE04A6008154260FBD03C1DF04BD0D33C103260399
:20C960007E07D47E07817E075586627E04B5813B2306813E22025F395C39D61927E8BD03AC
:20C98000C17C001BBD0A7509BD031808A60036A601369F37CE7E23BD0CFF23037E02F27E3E
:20C9A00007D786737A001B2A037E04B53233BD02FB7E07DABD05CBDF33BD03C108BD0A75C5
:20C9C000DE337E06B5BD03AB368DE9DE08DF37DE0632A700960509A700960409A70009BDE2
:20C9E0000CFF22037E02F2DF067E0755BD03ABDF1EDE06BC010C2604DE042074080808A168
:20CA00000026F0090909DF0608EE00DF04BD05CDDF33BD03C1BD0A75BD0BA0DE33BD0B93F5
:20CA2000DE04A60081532708BD03614C9764200ABD03C3BD0A759662971CBD0C19CE0010AF
:20CA4000BD06B5BD0C13BD0D0CD61C2B05062C122003062F0DDE06080808DF06DE1EDF0421
:20CA6000200BCE0010BD0B93DE33BD06B57E075586817E04B57F002C962C972D8D044D267C
:20CA8000F1399FFEBD0D2CDF04C10126048621204A54C1032603BD0361DE04BD0D2CDF04DC
:20CAA000C1042302C60558F70AAB20FE202B201B2038202C2004360820CA3009D6189CFE68
:20CAC0002706325F812827F25D270E4FD62C5AD12D260630099CFE270486209EFEDE043914
:20CAE000BD0BA0DE04BD036C2059A601BD0D33C1022628A600DF22CE0178BD03D64D27CBCF
:20CB00007E0792863F36DE227E0A84864020F6BD0361BD0D789764DE222028D6FE37D6FF95
:20CB200037D62D37D61837BD05CB33D71833D72D33D7FF33D7FEBD0BA0DE20BD0B93200582
:20CB4000DE0408DF0430099CFE2737323681282731BD0D333754962C4AC1042704912D2705
:20CB60002181092304862420163233800648B70B75CE0B85EE00AD00BD0D0C28C886237EB3
:20CB80000ADB7E0A990C190C130CD00C0B0C430C640CE2A6009762A6019763A6029764398F
:20CBA000CE003BE603E700088C006226F67C002C39CE0064E600E703098C003A26F67A0042
:20CBC0002C390CCE0064A600A90319A700098C006126F337C60285F026015FDA30D730176F
:20CBE00033398D030D20DCCE00678699A000A700098C006426F4840FA701397F0030966564
:20CC000016C40FD765972F9862972ED662C40FD7624D39966288F097628D588DDE2A0A8D26
:20CC2000C106280973002F200B8D97200A8D44BD03618DAE7F0030962F84F0C60FD4621BA6
:20CC40009762398D2E8DB4BD0361C605965F2708BD0BC27A005F26F85A273C8D499662BDCD
:20CC60000BD320E88D0DCE0065BD0D0F260886227E0ADB7E0BB18D83BD0BA08D296F026FA7
:20CC800003C6058D21BD0BE78D2E85F02613BD0BE70C8D255A26EC962E8D9ECE005E7E0B83
:20CCA000B47C006420E28604CE00640C6900098C005E26F84A26F1390DCE0061965F840F3E
:20CCC000975FA600A90619A700098C005E26F3398D3A270BD6628D077C0064177E0C397E07
:20CCE00003648D8F5FD730966727EBBD0BA08D838B9919271636BD0BFEBD0C473220F1DF1C
:20CD000039963991372604D63AD13839CE00625F6D02260E6D01260AA600840F2604A700ED
:20CD2000C604A6004684081B9A300639BD03BA2002A600C601810D27175A3680282B1081C4
:20CD400018230E8132230681362604C60ACB023239DF24CE0D5FB70D5AE600DE2420F0056D
:20CD6000040A060107000B0303030303030303030301010101010809C608CE0000A60348CB
:20CD80004848A803484869006901690269035A26ECA600819F22E18B00193900000000000C
:20CDA000000000000000000000000000000000000000000000000000000000000000000073
:20CDC000000000000000000000000000000000000000000000000000000000000000000053
:20CDE000000000000000000000000000000000000000000000000000000000000000000033
:20CE0000000000000000000000000000000000000000000000000000000000000000000012
:20CE20000000000000000000000000000000000000000000000000000000000000000000F2
:20CE40000000000000000000000000000000000000000000000000000000000000000000D2
:20CE60000000000000000000000000000000000000000000000000000000000000000000B2
:20CE8000000000000000000000000000000000000000000000000000000000000000000092
:20CEA000000000000000000000000000000000000000000000000000000000000000000072
:20CEC000000000000000000000000000000000000000000000000000000000000000000052
:20CEE000000000000000000000000000000000000000000000000000000000000000000032
:20CF0000000000000000000000000000000000000000000000000000000000000000000011
:20CF20000000000000000000000000000000000000000000000000000000000000000000F1
:20CF40000000000000000000000000000000000000000000000000000000000000000000D1
:20CF60000000000000000000000000000000000000000000000000000000000000000000B1
:20CF8000000000000000000000000000000000000000000000000000000000000000000091
:20CFA000000000000000000000000000000000000000000000000000000000000000000071
:20CFC000000000000000000000000000000000000000000000000000000000000000000051
:20CFE000000000000000000000000000000000000000000000000000000000000000000031
:10D000008603B783008615B783008E00E9BDD21A68
:10D01000CED68FBDD263BDD21ACED6BBBDD263BD34
:10D02000D294BDD21AFF0104BDD21A861736BDD0E4
:10D0300057324A26F8CED65CBDD263BDD23D8120A0
:10D0400027E6814127D0816127CC81582706817846
:10D05000270226E77EF400FE0104A600B701064F72
:10D06000F601065849B70100F70101CED45CFF0173
:10D07000020CB60101B90103B70101B60100B90103
:10D0800002B70100FE0100A600B7010708A600B71D
:10D090000108CED454FF0100BB0101B70101FE011C
:10D0A00000A600B70109FE0104BDD240CE0002BDBA
:10D0B000D22FB60106BDD24EBDD227B601098103DB
:10D0C000271C81022708CE0005BDD22F2020FE019B
:10D0D00004A601BDD24ECE0003BDD22F2010FE010A
:10D0E00004A601BDD24EBDD227A602BDD24ECE00AF
:10D0F00002BDD22F4FF6010758495849B70100F732
:10D100000101CED2A4FF01020CB60101B90103B79F
:10D110000101B60100B90102B70100FE0100A6003D
:10D12000BDD23AA601BDD23AA602BDD23AA603BDEF
:10D13000D23ABDD227FE0104B60108810026037E43
:10D14000D1EF810126037ED1EF810226108623BD17
:10D15000D23ABDD205A601BDD24E7ED1EF810326C3
:10D16000158623BDD23ABDD205A601BDD24EA60278
:10D17000BDD24E7ED1EF8104260BBDD205A601BDE6
:10D18000D24E7ED1EF8105260EBDD205A601BDD2BD
:10D190004EBDD20D7ED1EF81062610BDD205A6016F
:10D1A000BDD24EA602BDD24E7ED1EF81072640BD34
:10D1B000D205A601B7010B2B048600270286FFB714
:10D1C000010AB601050CB9010BB7010DB60104B98E
:10D1D000010AB7010CB6010D0C8902B7010DB601A9
:10D1E0000C8900B7010CBDD24EB6010DBDD24EBDAB
:10D1F000D21A0CB60105B90109B70105B6010489B7
:10D2000000B7010439368624BDD23A323936862C2D
:10D21000BDD23A8658BDD23A323936860DBDD23AA1
:10D22000860ABDD23A3239368620BDD23A323936F4
:10D230008620BDD23A0926FA32397EF5697EF5207C
:10D24000FF0100B60100BDD24EB6010120003644F8
:10D25000444444BDD25732840F8A3081392FDB8B4E
:10D260000720D7A6002706BDD23A0820F639BDD23E
:10D270003D81302DF981392F0B81412DF181462ED1
:10D28000ED803739803039BDD26E4848484816BDE8
:10D29000D26E1B39BDD287B70100BDD287B701015D
:10D2A000FE0100393F3F3F2041424120414443417C
:10D2B000414443424144444141444442414E44413B
:10D2C000414E444241534C2041534C4141534C4206
:10D2D0004153522041535241415352424243432011
:10D2E0004243532042455120424745204247542063
:10D2F000424849204249544142495442424C452007
:10D30000424C5320424C5420424D4920424E45202D
:10D3100042504C2042524120425352204256432018
:10D320004256532043424120434C4320434C492022
:10D33000434C5220434C5241434C5242434C5620A2
:10D34000434D5041434D5042434F4D20434F4D417B
:10D35000434F4D42435058204441412044454320CF
:10D3600044454341444543424445532044455820A5
:10D37000454F5241454F5242494E4320494E434149
:10D38000494E4342494E5320494E58204A4D502061
:10D390004A5352204C4441414C4441424C44532056
:10D3A0004C4458204C5352204C5352414C535242FF
:10D3B0004E4547204E4547414E4547424E4F50202F
:10D3C0004F5241414F5241425053484150534842BD
:10D3D00050554C4150554C42524F4C20524F4C41AD
:10D3E000524F4C42524F5220524F5241524F524292
:10D3F00052544920525453205342412053424341F6
:10D4000053424342534543205345492053455620F8
:10D410005354414153544142535453205354582080
:10D42000535542415355424253574920544142209B
:10D4300054415020544241205450412054535420D0
:10D440005453544154535442545358205458532025
:10D450005741492001010203020203020000460174
:10D460000000000000000000630165013901320185
:10D4700026015A01210158012201590155012001BB
:10D4800000000000000000006201640100002D01A6
:10D490000000010100000000000000001C07000166
:10D4A000130717070E070F071A0710071E071F0796
:10D4B0001B0719071107180712071607690138011A
:10D4C0004B014C0131016A0149014A01000054013C
:10D4D00000015301000100016B01610144010001E1
:10D4E00000012A014101000151010C0109014E0115
:10D4F0002F010001360167010001240145010001EF
:10D5000000012B014201000152010D010A014F01EE
:10D5100030010001370168010001250143050001C8
:10D52000000129054005000150050B0508054D05C2
:10D530002E050001350566053A0523054306000161
:10D54000000129064006000150060B0608064D069C
:10D550002E060001350666063A0623065F022702FC
:10D5600056020001060214023C02000133020202CC
:10D57000470204022C031D073E0300015F04270439
:10D5800056040001060414043C045B043304020442
:10D59000470404042C0400013E045D045F052705D4
:10D5A00056050001060514053C055B05330502051B
:10D5B000470504052C053B053E055D055F0627066E
:10D5C00056060001060614063C065B0633060206F4
:10D5D000470604062C063B063E065D06600228024E
:10D5E00057020001070215023D0200013402030246
:10D5F00048020502000100013F0300016004280405
:10D6000057040001070415043D045C0434040304BA
:10D6100048040504000100013F045E04600528057C
:10D6200057050001070515053D055C053405030593
:10D6300048050505000100013F055E056006280656
:10D6400057060001070615063D065C06340603066C
:10D6500048060001000105063F065E063C535041A6
:10D6600043453E20746F20636F6E74696E75652C40
:10D67000204120666F72206E657720616464726558
:10D6800073732C205820746F2065786974200036DD
:10D6900038303020446973617373656D626C6572F4
:10D6A0002076657220312E30206279204A656666C8
:10D6B000205472616E7465720D0A00537461727445
:10D6C00020416464726573733F2000FFFFFFFFFF1A
:10D6D000FFFFFFFFFFFFFFFFFFFFFFFFFFFFFFFF5A
:10D6E000FFFFFFFFFFFFFFFFFFFFFFFFFFFFFFFF4A
:10D6F000FFFFFFFFFFFFFFFFFFFFFFFFFFFFFFFF3A
:10D70000FFFFFFFFFFFFFFFFFFFFFFFFFFFFFFFF29
:10E400000FCE82006F016F038601A700867FA702EF
:10E41000C604E701E703A70009A600630043A100C3
:10E4200026F663008615094A26FC35860CEE088C14
:10E43000E44C2709C6FF30E70A084A26FA86043367
:10E440003330EE0CE7004A26F60C3131240DBDE6E0
:10E45000180D0A4552524F52210700BDE6180D0A09
:10E460004D4F4E3E20007D82002AFBBDE8E1CEE903
:10E47000EF080808A10025F926D236BDE86332C6A8
:10E480004C37C6E437E60237E601375FDEF239BDC6
:10E49000E6252404A707E706BDFE6BC60430EE0C94
:10E4A000A6003636863FA7005A26F2203E30A60642
:10E4B00026026A05E6054AA7069FF29EEC36860408
:10E4C00097EC32300808A10D2619E10C2615BDE69F
:10E4D000180D0A008604333330EE0CE7004A26F6A6
:10E4E0007EE5537A00EC26DCBDFE6B9FECCEE4ADFE
:10E4F0007EFEFC3086FFC6040808A1042604A105A0
:10E5000027055A26F30D39BDE6252404A705E7049F
:10E510000C39860497ECBDE6252504A607E60630EF
:10E520000808A1052604E10427077A00EC26F10D6E
:10E5300039C6FFE704E7050C39BDE6252509860144
:10E54000200536BDFE6B324A26F8BDE6180D0A00DE
:10E55000BDFE6B5FDEF286438D2686428D248641AA
:10E560008D2086588D1B86508D18865309DFECCE82
:10E5700000EB8D0CDEF2EE06DFECA6008D630C39AD
:10E58000085CBDE865863DBDE86520670808085C55
:10E5900008088B408DEA37BDE625242F8D051733FB
:10E5A0005A270809A700A10027010D395A37EE069E
:10E5B0008D732407363730EE0031310C3324058D4E
:10E5C000E2250A088D08378D5C23F10C3339A6004B
:10E5D00036DFEC8D430D0A00CE00EC8D2D325D2B25
:10E5E0000E8D665A2A095C8D2F444154413D00DE50
:10E5F000EC8D19C1012B202713200FC60630085AB5
:10E6000026FCC6048D045A26FB398D058D037EE851
:10E6100063375FBDE7E4333930EE003131375FBD3A
:10E62000E7C3336E005FBDE8A3241D363748594861
:10E6300059485948593736BDE8A32407331B3331AD
:10E640003120E8313133320D393616CEFF7508C02E
:10E650000824FBA600465C26FC32251E81302404DB
:10E660008120241481602511818D270C84BD818C2B
:10E67000270484308130C2FF5C5C39BDE618534CFE
:10E680004944452000BDE62524193637BDE625243A
:10E69000103637BDE62524073637BDE96D0C393114
:10E6A0003131310D39BDE62525028608163434BDD9
:10E6B000E8DE847F815326F7BDE8DE847F81392739
:10E6C0003634813126E9B7C16F4F30BDE8C2BDE8AD
:10E6D000C2BDE8C230EE01D7EC33C00337D6ECBD83
:10E6E000E8C2D7EC335A26F47FC16FD6ECCE00ECEB
:10E6F000BDE8C24C27B90D3131398B40BDE865BD4D
:10E70000E62516C47F2003CB095A3037BDE6252401
:10E710000BA703E702BDE625A705E704A605E60467
:10E72000EE02DFEE97F5D7F4335D2F07BDE82786BD
:10E7300007200286044A26FD37D6F496F590EFD2DC
:10E74000EE2558810FC2003324022003860F019763
:10E75000EC8B0497EDCEE7B65D2A03CEE7C08D6360
:10E76000CE00EE4F015D2B0309A50001018D75015F
:10E7700026F9DEEE8D627A00EC2AF943360186072F
:10E780004A26FD325D2B028D6EB682004349DFEED4
:10E79000DFEE229F083786064A26FD330186034AAC
:10E7A00026FDCEE7BB5D2B0D8D195D270886134A2C
:10E7B00026FD8D730C390D0A5331000D0A533900B3
:10E7C0000D0A00A600088D490186104A26FDA60004
:10E7D000086D0026F1082039AB003686055D2A0950
:10E7E000BDE86332AB00368606014A26FDA6008DE1
:10E7F0000632088C00F03936444444448D088612B1
:10E800004A26FD32840F810A24022003018B078BE4
:10E81000305D2F510C8D27360D468D1B014426FA95
:10E820008D1532080920100D368D1337C66E178DE1
:10E8300006014A26FA333236861501012003368650
:10E8400001378C861D4A26FD4C8D10861E4A26FDFA
:10E850000784018D075A26EB33323901B88202B79B
:10E86000820239862036378D210D8D320C8D2F0D89
:10E87000468D2B4426FB8D263332810A260B364FDC
:10E880008DE38DE18DDF8DDD323936C601B6820034
:10E8900043840E442706564A26FCC0053239378D7C
:10E8A0007220688D3C812027FA8030250C810A2552
:10E8B000108011810625088B118B30810D0C398059
:10E8C000F639368D19847F8DE04848484897EC8D9D
:10E8D0000D847F8DD49BECA70032AB0008395D2EF0
:10E8E00054378DA6177EEB507D82002BFB8D1525AE
:10E8F000F71686808D0E4624FB8D0925037C820049
:10E90000847F3339378D0CCB80C080C900F78200FB
:10E91000563339C5FE26115A2702C638C831368605
:10E92000124A26FD5A26F832BCE913015A26F9F696
:10E930008200C4FE3937548D1E25FC5A2AF93386CD
:10E940007F37368D125A26FB32334625F437368D03
:10E95000065A26FB323339B682028D02240E375F07
:10E960005CB1820227FAB68202C11D333930EE0251
:10E97000277430A605E604A007E206252426034DE9
:10E98000276486FF163637AB03E9023637AB05E955
:10E9900004A705E7043332AB07E906A707E706201B
:10E9A0000E86015F36374FA003E202A703E702306D
:10E9B000EE08A60030EE06A70030A601E600AB097F
:10E9C000E908A709E708A601E600AB07E906A707DB
:10E9D000E706A601E600AB05E904A705E70426CF94
:10E9E0004D26CC313130EE003131313131313131E0
:10E9F0006E0054E70753E55052E55350E70A4DE5E2
:10EA0000AC4CE6A549E5AD48E4F347E48F45E5396C
:10EA100044E70943E51242EC0318E58E14E6FA13C5
:10EA2000E67B10E58C08E5FB03E59202E59101E544
:10EA30009000FC000F8D4935316F000926FB6F00F7
:10EA40009FEE8E00EBBDFCBCCE00EEC602BDFD7B92
:10EA50004F5ABDFE2036BDFD4332DEEEA100261327
:10EA60006C00098C00F12603CE00DF8CFFFF26EC42
:10EA70004C20DFDFEEBDFCBCCE00EE5CBDFD7B3E7E
:10EA800036CE8000865509A700A10026F93239C686
:10EA9000088D428E00EB37BDFC864785CE00EEC662
:10EAA00002BDFCBCBDFD25BDFC860EFDBDFCBCCE83
:10EAB00000F4BDFD2533BDE7297EFC00C6088D1599
:10EAC0008DBE3531BDE6AD24F0BDFCBCBDFE524F60
:10EAD00005051D853ECE82006F016F038680A7006D
:10EAE00043A7028604A70339BDE6180D0A4D454524
:10EAF00047414E0020F28601B78200C604F782012A
:10EB0000BDE6180D0A54484953204953204120546A
:10EB100045524D494E414C20544553540020E1B6D6
:10EB20008200434924067D82002BFB0D39C608BDB7
:10EB3000E6AD24037EE44E39CE0000DFEEDE24DFB6
:10EB4000F4C608BDE72939FFFFFFFFFFFFFFFFFF06
:10EB5000165427015C7EE8E8FFFFFFFFFFFFFFFF81
:10EB6000FFFFFFFFFFFFFFFFFFFFFFFFFFFFFFFFB5
:10EB7000FFFFFFFFFFFFFFFFFFFFFFFFFFFFFFFFA5
:10EB8000FFFFFFFFFFFFFFFFFFFFFFFFFFFFFFFF95
:10EB9000FFFFFFFFFFFFFFFFFFFFFFFFFFFFFFFF85
:10EBA000FFFFFFFFFFFFFFFFFFFFFFFFFFFFFFFF75
:10EBB000FFFFFFFFFFFFFFFFFFFFFFFFFFFFFFFF65
:10EBC000FFFFFFFFFFFFFFFFFFFFFFFFFFFFFFFF55
:10EBD000FFFFFFFFFFFFFFFFFFFFFFFFFFFFFFFF45
:10EBE000FFFFFFFFFFFFFFFFFFFFFFFFFFFFFFFF35
:10EBF000FFFFFFFFFFFFFFFFFFFFFFFFFFFFFFFF25
:10EC00007EED007EED257EE8E17EE8657EEB1F0867
:10EC100015008020A6005F39A70039ED98ED9BED27
:10EC2000EEEE12EE3BEE0BECFCECD7ECDBEC89EC01
:10EC3000A6ECA9EC77EC80EFABEFB0EF00EF10EFB4
:10EC4000CEEF99EF8EEEC2EECFEECDEEE5EE6BEFAE
:10EC500023EF49ECFCF0D7F045F0BAF0C2F128F010
:10EC6000ADF0CBE400F159EB2DEB38F1B1ED12EF43
:10EC70007EED25ECB9EFA68D2D97BCD7BD7EEFD7E5
:10EC8000BDEFFC96BCD6BD20048D1B8D00DEC209F5
:10EC9000E7002002DEC209A700DFC23696C191C399
:10ECA0003225597EED5C8D0117C601DBC3C1802280
:10ECB000F2DEC27C00C3E600398D058DD71720D463
:10ECC0008606169BC3818022DADEC297C3A605366C
:10ECD000095A26F907363B8D1C20B98D18368D153B
:10ECE000163220A99BC397BD7F00BC8DBCDEBCA69D
:10ECF00000E700209FDE2AA60008DF2A4D39F26ACD
:10ED0000CE0100DF20BDEA80DF22BDE61848544274
:10ED100031009620D621FBEC1389009724D725DEFD
:10ED2000206F006F019E22BDF12CFEECFEDF2ACE8B
:10ED30000080DFC2CE0030DFC09F268DB88D072057
:10ED4000FA8C009920F3CEEC17DFBC813024568179
:10ED50000825914897BDDEBCEE176E00BDF12C86EC
:10ED60002197C1BDEC09868097C3D62B962AF0EC7B
:10ED7000FFB2ECFEBDF04296C0270FCEED93DF2A26
:10ED8000BDF0AD9628D629BDF0428607BDEC099EA0
:10ED900026209420415420807A00BC7D00BC27BCF2
:10EDA000DEBCDF2A398140242336BDECF5BBECFF05
:10EDB00097BD32168407B9ECFE97BCC40826E1DE85
:10EDC0002A972AD6BDD72BDFBC7EEFD71644444402
:10EDD00044840E97BDDEBCEE174FC160C41F2402F1
:10EDE000CAE02706DB2BD7BD992A97BC6E00DE2C24
:10EDF000DFB88D368D2A16BDECF52A02CA801126A1
:10EE0000044D2AEE39DEB8DF2C20908D1D810D26B1
:10EE1000F8398D16815A2EF181412DED48BDEC94C3
:10EE2000DE2CA60008DF2C810D398DF4812027FA15
:10EE300009DF2C81300C2D02813A398DED24CACEA8
:10EE40000000DFBC8DDA3696BCD6BD58495849DB88
:10EE5000BD99BC5849D7BD33C40FDBBD890097BCF1
:10EE6000D7BD8DC625DE96BC7EEC8D8D73A6024780
:10EE700049A20297BC97BD16EB03E70316E902E728
:10EE800002A80097BE2A028D3BC611A600AA012641
:10EE9000037EED5C96BDA0013696BCA2003698BC00
:10EEA0002B093297BC3297BD0D200332320C690317
:10EEB00069027900BD7900BC5A26D98D207D00BE3B
:10EEC0002A0ADEC2600126026A006300398DF38DD2
:10EED0000FE603EB01A602A900A702E7037EECA957
:10EEE000C6047EECAB8DF9861097BC4F5F5849681D
:10EEF0000169002404EB03A9027A00BC26EF20D9A3
:10EF00008DDBD7BD7F00BCDEBCA600E6017EEC8DAC
:10EF1000C6038DCEE6016F01A600EE01A700E70152
:10EF20007EECA68DFB37C6038DB87C00C37C00C386
:10EF300033E002A2012E0B2D055D2704200467009B
:10EF400067006700241B7EECF596C0271DBDEE20F0
:10EF500026FB8D1D27118D32BDEC0C2505DEC4DF8F
:10EF60002A39FEECFEDF2A7EED5C9E2697BF7EED01
:10EF70002ABDEE209728BDEE209729DE2839DE2015
:10EF8000DF2C8DED27E1DE2ADFC40797C039BDF005
:10EF90001A27C3DEBCDF2820CE8D61306C016C01E6
:10EFA000BDF02526EE398D54DF2A39CE002C200302
:10EFB000CE002EA60181802408A6002604DE2C2087
:10EFC0000ADE2C962E972C962F972DDF2E39306C3B
:10EFD000016C01DE28DFBC343430A602A700A60392
:10EFE000A70196BCA70296BDA703CE00249FBCA68E
:10EFF0000190BDA60092BC25207EED5C300808087B
:10F000009C2227F5EE01DFBC3037C604A603A70516
:10F01000095A26F8333131DEBC39BDECA6D7BD978D
:10F02000BC9ABD27D4DE20DF2CBDEF712711D62975
:10F030009628D0BD92BC2407BDEE2026FB20EA9C7A
:10F04000BC39BDEC8DDEC26D002A07BDEEC2862D37
:10F050008D464F36C60F861A36373637BDECA6308A
:10F060006C00C010822724F86A01CBE8890324F8D9
:10F070006C02C064820024F86A03CB0A24FA7F0081
:10F08000BE324D27048D0320F817811026057D0020
:10F09000BE27177C00BE8A307C00BF2B0ADFBA3740
:10F0A000BDEC0933DEBA397A00BF398DEBBDECF522
:10F0B0002AF920E4812227F28DDEBDEE2026F57E9E
:10F0C000ED5CD6BF2BE4CAF8502003BDECA65A2D48
:10F0D000D986208DC320F7DE2CDFB8DE20DF2CDEC2
:10F0E000248D2C27028D28962CD62DD0B792B624AD
:10F0F00032BDEF71272D9628D629BDF04286208D8E
:10F100004BBDEC0C251DBDEE2026F48D1B20D80830
:10F11000DFB6DEC28C00802709BDF01ADE2C09099B
:10F12000DF2C39DEB8DF2C3996BF2BF6860D8D1912
:10F13000F6EC11582708378D09335A5A26F8860AF3
:10F140008D0A4F7DEC112A01437F00BF7EF098B6F7
:10F15000EC1220014F97BF200ACE0030DF2CDFBC1D
:10F16000BDEC8D98809780BDEC06847F27F5817F6C
:10F1700027F1810A27D9811327DADEBCB1EC1027E9
:10F180000AB1EC0F260C8C00302615DE2C860D7F84
:10F1900000BF9CC2260686078DB220C7A7000808BC
:10F1A00009DFBC810D26BCBDF12896BD97C17EEC60
:10F1B000A6BDEFC1BDF01A07BDF11CDFB8DEBCDF94
:10F1C000B65F06260BBDEF71C6FE5ABDEE2026FACD
:10F1D000CE0000DF28BDEFC1860DDE2CA100270C7C
:10F1E000CB035C08A10026FADEB6DF28DEB8DFBC60
:10F1F0005D27552A23962F1B97B9962E89FF97B81E
:10F20000DE2EE6009C24273C9C26273808DF2EDED5
:10F21000B8E70008DFB820E8DB25D72F860099245F
:10F22000972ED027922625067A002B7EED5CDE2EC7
:10F23000DFB8DE24A60009DF24DE2EA70009DF2EBA
:10F240009CBC26EEDEB8DF24DE282719DEBC96281B
:10F25000D629A70008E70008DFBCBDEE20DEBCA76A
:10F2600000810D26F29E267EED2A243A912710E198
:10F2700059C52A5610112C8B4C45D4A080BD30BCEA
:10F28000E0131D9447CF8854CF30BCE01011168096
:10F290005355C230BCE014169050D283494ED4E589
:10F2A0007188BBE11D8FA221586F83AC225583BAB0
:10F2B0002493E0231D30BC20489149C630BC313432
:10F2C00030BC84544845CE1C1D380D9A494E5055CB
:10F2D000D4A010E7243F209127E15981AC30BC1322
:10F2E0001182AC4DE01D895245545552CEE0151D9A
:10F2F00085454EC4E02D984C4953D4EC24000000C1
:10F30000000A801F2493231D30BCE15080AC598536
:10F310005255CE380A86434C4541D22B845245CDB6
:10F320001D395700000085AD30D3176481AB30D351
:10F3300085AB30D3185A85AD30D319542F30E285C0
:10F34000AA30E21A5A85AF30E21B542F97524EC4AE
:10F350000A8080120A09291A0A1A851813098012CC
:10F360000B313061730B0204020305031B1A190BE6
:10F3700009060A00001C172F8F5553D280A830BCF5
:10F38000312A312A80A92E2FA2122FC12F80A83016
:10F39000BC80A92F83AC38BC0B2F80A8522F84BD12
:10F3A00009022F8EBC84BD09032F84BE09052F09D5
:10F3B000012F80BE84BD09062F84BC09052F0904D6
:10F3C0002F844259C526864C4F41C4281D8653417F
:10F3D00056C5291DA080BD3814FFFFFFFFFFFFFFAA
:10F3E000FFFFFFFFFFFFFFFFFFFFFFFFFFFFFFFF2D
:10F3F000FFFFFFFFFFFFFFFFFFFFFFFFFFFFFFFF1D
:10F400007EF5F4CE00FA200E363730EE00E60086A8
:10F410003FA700CEF638378D4225ED7EF6334F5CA0
:10F420003637308D36240AA707E7068D2EA705E765
:10F430000432A60736A606367EF5D65A37EE068D76
:10F440001A2407363730EE0031310C3324038D4354
:10F4500008BDF545378D0423F233395F8D6A241CCE
:10F460003637485948594859485937368D5A24072C
:10F47000331B33313120E9313133320D390808087B
:10F480005C08088B408D36378DD124CD8D05173320
:10F490005A270709A700A100264D39BDF6A7BDF6DA
:10F4A0007186438D1886428D1686418D1286588D41
:10F4B0000D86508D0A865309DFEECE00ED085C8D77
:10F4C0006C863D8D687EF55D8D56812027FA8030F3
:10F4D000250C810A256E8011810625668B118B30E3
:10F4E000810D0C394C270ABDF594863F7EF6180134
:10F4F000018D2D815326FA8D278039274780F826E4
:10F50000F08D2CC002D7F28D2637378D2230E701DF
:10F51000EE0031318D197A00F227C9E7000820F496
:10F52000B683004424FAB68301817F27F3203A365C
:10F530008D9624B348484848168D8D24AA1B163250
:10F540001B3980F639A600368D4ACE00EE8D143276
:10F550005D2B06BDF6755A2B8EDEEE8D08C1012B94
:10F560001927028D188D16862037C602F5830027CD
:10F57000FB36847FB78301324D3339EB00A6000898
:10F5800036444444448D0332840F810A25028B079C
:10F590008B3020D5DFEECEF78E2051C10F2502C66D
:10F5A0000F37E6028DF05D27098D413337CB041705
:10F5B0008DCE30088DC58DC3306D0326028DA8EE2B
:10F5C000018DB8306C0226026C016A002AEA326DA5
:10F5D000032703108DAA30E606A605E001A200224B
:10F5E000BE24B83232324D270ACEF78CA600088DE1
:10F5F000A12AF9398603B783000101018E00CB9F50
:10F60000F09EF2DEF57F00F58CF638260A3230EEF9
:10F61000003131A70026F64F8E00E9C615F78300AA
:10F62000CEF7858D3420F00808086D00261B8D77F5
:10F63000CEF6389FF27EF709309FF09EF2A606269E
:10F64000026A05E6054AA70630E10126DAA102268C
:10F65000D6BDF594BDF49E20AA8D94BDF520364A02
:10F6600008A10525FB26B0BDF56732E61337C6F4C1
:10F67000375FDEF0393616CEF7AD08C00824FBA69A
:10F6800000465C26FC32251E81302404812024148F
:10F6900081602511818D270C84BD818C27048430E5
:10F6A0008130C2FF5C5C399FEE8DC7A60736A60687
:10F6B00036EE06863F3636A60236A60136A6003658
:10F6C0008DB32770302502E7018601C1022E06277F
:10F6D00002A701A7024FEB06A905A705E7068D9231
:10F6E000A706E707C606323684CF818D32274881C8
:10F6F0006E275B817E275E81392762813B276C8183
:10F700003F276EAF0636CEF712867E97F4DFF59E62
:10F71000F03B30EE05084F5F9CEE260C09EE000929
:10F72000E6002A014330EE05EB01A90030A705E70A
:10F730000609DFF09EEE39818D2602865F803F3616
:10F740000909DFF0A603A701085A2AF82090334FD1
:10F75000EB05A9048C3233A706E70720D70808DF9A
:10F76000F0A603A705095A2EF820C9085A2AFC203A
:10F77000C1A607A700095A2AF88A10A701DFF0C618
:10F78000FA860020D20D0A4D4F4E3EA053390D8A05
:10F7900053B152514F4C4B484643170F0B020100D7
:10F7A0009B9E1F3BF03C031E7F7DEF8382819C006C
:10F7B0003CAF400000AC641264126410641011018C
:10F7C000100410001000110D100C100C100CFFFF95
:10F7D000FFFFFFFFFFFFFFFFFFFFFFFFFFFFFFFF39
:10F7E000FFFFFFFFFFFFFFFFFFFFFFFFFFFFFFFF29
:10F7F000FFFFFFFFFFFFFFFFFFFFFFFFFFFFFFFF19
:10F80000FFFFFFFFFFFFFFFFFFFFFFFFFFFFFFFF08
:10F81000FFFFFFFFFFFFFFFFFFFFFFFFFFFFFFFFF8
:10F82000FFFFFFFFFFFFFFFFFFFFFFFFFFFFFFFFE8
:10F83000FFFFFFFFFFFFFFFFFFFFFFFFFFFFFFFFD8
:10F84000FFFFFFFFFFFFFFFFFFFFFFFFFFFFFFFFC8
:10F85000FFFFFFFFFFFFFFFFFFFFFFFFFFFFFFFFB8
:10F86000FFFFFFFFFFFFFFFFFFFFFFFFFFFFFFFFA8
:10F87000FFFFFFFFFFFFFFFFFFFFFFFFFFFFFFFF98
:10F88000FFFFFFFFFFFFFFFFFFFFFFFFFFFFFFFF88
:10F89000FFFFFFFFFFFFFFFFFFFFFFFFFFFFFFFF78
:10F8A000FFFFFFFFFFFFFFFFFFFFFFFFFFFFFFFF68
:10F8B000FFFFFFFFFFFFFFFFFFFFFFFFFFFFFFFF58
:10F8C000FFFFFFFFFFFFFFFFFFFFFFFFFFFFFFFF48
:10F8D000FFFFFFFFFFFFFFFFFFFFFFFFFFFFFFFF38
:10F8E000FFFFFFFFFFFFFFFFFFFFFFFFFFFFFFFF28
:10F8F000FFFFFFFFFFFFFFFFFFFFFFFFFFFFFFFF18
:10F90000FE01006E00FE01066E00860D8D67018609
:10F910000A8D628D63815326FA8D5D813927258199
:10F920003126F07F010A8D2D8002B7010B8D188DD5
:10F93000247A010B2705A7000820F47C010A27D3AD
:10F94000863F8D317EF9E38D0CB7010C8D07B70131
:10F950000DFE010C398D5348484848168D4C1B1636
:10F96000FB010AF7010A3944444444840F8B308177
:10F970003923028B077EFAAE7EFA9A8DF808A6002C
:10F98000810426F7398DC0CEFA8F8DF2CE010C8D11
:10F9900037FE010C8D34FF010C8DDD812026E88DB2
:10F9A000B409A700A10027DF20968DCC80302B94CE
:10F9B00081092F0A81112B8C81162E88800739A688
:10F9C000008DA4A6000820A38DF58DF3862020A528
:10F9D0008E0142BF01088603B7830001010186152D
:10F9E000B783008E0142CEFA8F8D938D8B168DDCFE
:10F9F000C14C26037EF90AC14D278AC1522718C17E
:10FA0000502732C14726DCBE01083BBF0108306DDC
:10FA10000626026A056A06FE0108088DAD8DAB8DCB
:10FA2000A98DA58DA3CE01088D9E20B70D0A533157
:10FA30000401010101FE0102FF010FB60105B00141
:10FA400010F60104F2010F260481102502860F8BA7
:10FA500004B701118003B7010ECEFA2CBDF97E5F09
:10FA6000CE01118D25CE010F8D208D1EFE010F8D33
:10FA7000197A010E26F9FF010F5337308D0C33FE32
:10FA8000010F09BC010426B320A0EB007EF9BF0DD5
:10FA90000A2A04FF0112390101018DF7B6830047DC
:10FAA00024FAB68301847F817F27F18D013936B630
:10FAB0008300474724F932B7830139FFFFFFFFFF77
:10FAC000FFFFFFFFFFFFFFFFFFFFFFFFFFFFFFFF46
:10FAD000FFFFFFFFFFFFFFFFFFFFFFFFFFFFFFFF36
:10FAE000FFFFFFFFFFFFFFFFFFFFFFFFFFFFFFFF26
:10FAF000FFFFFFFFFFFFFFFFFFFFFFFFFFFFFFFF16
:10FB0000B683004724FAB68301847F817F27F17E84
:10FB1000FBAE8DEC81302B5281392F0A81412B4A6B
:10FB200081462E468007398615B7830086118D7E63
:10FB30008DCE815326FA8DC881392725813126F053
:10FB40007F01328D368002B701338D218D2D7A01F0
:10FB5000332705A7000820F47C013227D3863F8D88
:10FB60004D8615B7830086138D447EFBDB8D0CB765
:10FB700001348D07B70135FE0134398D9548484869
:10FB800048168D8E840F1B16FB0132F70132398D1A
:10FB9000DC8D348D308DE409A700A10026BF203B09
:10FBA00044444444840F8B30813923028B0737F659
:10FBB0008300575724F9B783013339A6008DE1A696
:10FBC000008DE108398DF4862020E330FF0130C636
:10FBD000098DF25A26FB8615B783008E0128860D03
:10FBE0008DCC860A8DC8BDFB00168DDBC14C26036B
:10FBF0007EFB27C14D2798C15027D0C14726DC3B4B
:10FC00008E00EBBDFD8D4E673E003EE7CE00CBDFA4
:10FC1000F286FFC608365A26FC97EE86193686FC11
:10FC200036BDFDF47D00EE2708810F27F4810B27F8
:10FC3000F0DFECCEFFB408084A2AFBA60136A60086
:10FC400036DEEC96EE39CE00E286FFC6040808A147
:10FC5000002604A101270E5A26F3BDFD8D00473E64
:10FC60000E0EA04C39DFEE8D1D1F858D084C39DF3F
:10FC7000EE8D133D9D8D45DEEEC6027EFD25DFEE49
:10FC80008D0477BD20EFCE812F7EFE50DEF2080876
:10FC9000080808088DD98D244FC606BDFE3A5A269D
:10FCA000FA8D19BDFE6BC60430EE08A60036368606
:10FCB0003FA7005A26F2CEFCCE7EFEFCDFECCE81C2
:10FCC0006FDFF0DEEC39CE00EE8DB3DEEE39309F23
:10FCD000F2A60626026A054AA706E605D7EC97EDC6
:10FCE0000C8E00D9C604323230EE089CEC26010D91
:10FCF000A7005A26F124ACDEEC8DC1DFEECE00EE7B
:10FD0000C6028D03EE005A7EFD7B8DBA8DEB8D0B06
:10FD10000820F98DB10908080920DE5D2706368D17
:10FD2000228D02323937860858BDFE3A5A26FA33F8
:10FD30008D1137BDFE09A700085A26F73317094A67
:10FD400026FC393796F18B205A26FB97F133398DF3
:10FD50003B309520168D35770D0DFD20108D2D77BC
:10FD60000D0D9F20098D25678D4C4C5C4C4C5C8B98
:10FD700002DEF2084A26FC8D024C3937A600BDFE91
:10FD800020085A26F73317094A26FC395FCE816FBF
:10FD90007EFE50BDFCBCDEF2C6204FE50127014CC3
:10FDA000BDFE285626F44C398DE25BE7D6F3CB072F
:10FDB00099F28D6C175F8D6886013937F68003B62E
:10FDC0008006484848594859485937F68005C41FA5
:10FDD0001B334353DFECCEFFA51127112406361742
:10FDE00033CEFFAD5D2606084822FC27010CA60095
:10FDF000DEEC333937C6208DC225FA5A26F9C620E3
:10FE00008DB924FA5A26F933398DE98D1B484848B3
:10FE10004837168DDF8D111B33368D9F25FC323907
:10FE200036444444448D013236840FDFECCEFF95D6
:10FE3000084A2AFCA6008D043239DFECDEF037498F
:10FE400049C61049A700095A26F9DFF0DEEC33391C
:10FE5000DFF030EE003131A6008DDF084D2AF84F7B
:10FE60006E008D07DEF2EE067EFCF99FEEDEF2A656
:10FE70000736A60636EE06863F3636A60236A601B9
:10FE800036A6003616CEFF7508C00824FBA600462D
:10FE90005C26FC3236251E81302404812024148106
:10FEA000602511818D270C84BD818C2704843081CD
:10FEB00030C2FF5C5C2770302502E7018601C10279
:10FEC0002E062702A701A7024FEB06A905A705E703
:10FED00006DEF2A706E707C606323684CF818D32EA
:10FEE0002748816E275B817E275E81392762813BAF
:10FEF000276C813F276EAF0636CEFF05867E97F4CE
:10FF0000DFF59EF23B30EE05084F5F9CEE260C09B4
:10FF1000EE0009E6002A014330EE05EB01A90030AE
:10FF2000A705E70609DFF29EEE39818D2602865F7E
:10FF3000803F360909DFF2A603A701085A2AF820F4
:10FF400090334FEB05A9048C3233A706E70720D581
:10FF50000808DFF2A603A705095A2EF820C9085A97
:10FF60002AFC20C1A607A700095A2AF88A10A7016F
:10FF7000C6FA860020D49C003CAF400000AC64125E
:10FF80006412641064101101100410001000110DAF
:10FF9000100C100C100C7E306D79335B5F707F7B22
:10FFA000771F4E3D4F47070A0D0205080B0E03064B
:10FFB000090C0F000104FC45FD55FD5DFD65FD4F7D
:10FFC000FD93FDA8FC96FE62FC46FD0AFD18FD1B94
:10FFD000FC8CFD13FD16FFFFFFFFFFFFFFFFFFFF80
:10FFE000FFFFFFFFFFFFFFFFFFFFFFFFFFFFFFFF21
:10FFF000FFFFFFFFFFFFFFFF00F700F400FDFC0025
:00000001FF
