:20C000000D7600F37E18F97E033C00004838002C00000000000000000000000000000000B2
:20C02000000000000000000000000000000000000000000000000000000000000000000000
:20C040000000000000000000000000000000000000000000000000000000000000000000E0
:20C060000000000000000000000000000000000000000000000000000000000000000000C0
:20C080000000000000000000000000000000000000000000000000000000000000000000A0
:20C0A000000000000000000000000000000000000000000000000000000000000000007C04
:20C0C00000C926037C00C8B6EA60813A2408812027ED803080D039FFEA607E03C7000000C4
:20C0E00006060606060604FFFDFFFDFFFFFFFDFDFFFDFD00FDFFFDFDFDFFFDFFFF6460FD82
:20C1000000000000000000000000000000804FC752007E18F90CD80E341490150414AA0DFA
:20C120004C0E150E4016FC17DC12D2176818121818185E18A2118D10A90EF1114A10C910B6
:20C14000B510D110EE10F57911C77911BC7B130A7B13BE7F1705500B96460B95454EC446BC
:20C160004FD24E4558D4444154C1494E5055D44449CD524541C44C45D4474F54CF5255CEAC
:20C1800049C6524553544F52C5474F5355C25245545552CE5245CD53544FD04FCE4E554C56
:20C1A000CC574149D44445C6504F4BC55052494ED4434F4ED44C4953D4434C4541D24E4509
:20C1C000D7544142A854CF46CE535043A8544845CE4E4FD4535445D0ABADAAAFDE414EC486
:20C1E0004FD2BEBDBC5347CE494ED44142D35553D24652C5504FD35351D2524EC44C4FC739
:20C200004558D0434FD35349CE5441CE4154CE504545CB4C45CE535452A45641CC4153C3C1
:20C22000434852A44C454654A45249474854A44D4944A400062E056509B3070608DA0C2099
:20C240000900079106C906A30727061206AD06E0073A062D07470664119B0E4F119407FA0B
:20C2600006520514067504E24EC653CE52C74FC446C34FD64FCD55D342D344C42FB049C410
:20C2800054CD4FD34CD353D443CE55C6204552524FD20020494EA0000D0A4FCB0D0A000D13
:20C2A0000A42524541CB003008080808C610DF71A60080812614EE01DF73DE9E27089C733D
:20C2C00027088D4220E6DE73DF9EDE714D398D2007369F780F9EA3DEA50809A600369CA9B1
:20C2E00026F8319FA79E783206394F58DB819980CB268900251B9F78917825062213D17982
:20C30000220F394FDF71DB7299719773D774DE7339C60CBD05007F0111BD0834BD0893CE9A
:20C3200002688DDFA600BD0895A601BD0895CE028BBD0879DE8A082703BD15D77F0111CEEB
:20C340000297BD0112862C970FBD03ECDFC8BD00BF27F2250BCEFFFFDF8ABD042E7E05EF6E
:20C36000BD0767DE8EDF0EBD042ED75ABD04C42522D6AAE00186FFDB7D997C977CD77D078C
:20C38000369F780FAE003432A700089C7C26F89E7832069610272B967CD67D97A5D7A6DB09
:20C3A0005A890097A3D7A4BD02CE07369F780F8E000B32A700089CA726F89E783207DEA34A
:20C3C000DF7CBD04EEDE7AA600AA0126037E0345DFD80808080808A60026FB087E00D7BDFB
:20C3E0000895095A260BBD0895BD0834CE0010C6018D2B81072714810D2720812025F2818B
:20C400007D24EE814027DF815F27D4A700C1482403085C8C8607BD089520D67E082F37BD9E
:20C42000DF3A1733847F810F2603730111397F005D7A00C9CE000FDFBD9F7807975F010F63
:20C440009EC833C1202732D759C1222755965D2628C13F2604C6952020C1302504C13C2538
:20C4600018CE015B9EC85F0832812027FBA00027F681802632CA80DEBD9FC89E78965F0645
:20C4800008DFBDE700272FC03A2704C1492602D75DC05426A9D7590F9EC8335D27DBD159EC
:20C4A00027D708E70020F39EC85CA600082AFBA60026B53320C1E701E702D6BEC00BCE0054
:20C4C0000FDFC839968EDE7AE600EA012710A1022208250BD68FE1032305EE0020EA0DDF97
:20C4E000A93926FBDE7A6F00086F0008DF7CDE7A09DFC8DE88DF84BD0612DE7CDF7EDF80DC
:20C50000CE0065DF6130EE009E824F3697909791975E6E0022ADBD076726A832328DA5A62F
:20C5200000AA0126037E033CBD0618BD0834A602E60308080808DF71BD15E08620DE71BD31
:20C540000895A600084D27D72AF5807FDF71CE015C4A2707E600082AFB20F6A6002BDE0854
:20C56000BD089520F68680975EBD0791BD02A731312604BD030635C608BD02EABD070BDFE9
:20C5800071D67237D67137D68B37D68A37C69BBD0B3FBD0A0DBD0A0BD6B3CA7FD4B0D7B013
:20C5A000CE05A67E0AABCE12B1BD1438BD00C781A02606BD00BFBD0A0BBD1483BD0AA5D680
:20C5C0009F37D69E378681368D4EDEC8DF92A6002707813A27197E0B4908A60008AA000C9E
:20C5E00007275408A600978A08A600978BDFC8BD00BF8D0220D2276B808024037E07918126
:20C600001A24D34816CE0234BD0303EE00BD00BF6E00DE7A09DF9639BDDF3524FABD041E2F
:20C6200036B6DF568402322702860381030D263307DEC8DF923131DE8A08270709DF8CDE15
:20C6400092DF907F0111CE029E0624037E03317E033C260FC620DE9026037E0313DFC8DE73
:20C660008CDF8A39BD113B26FA5CD10C24045AD70A397E0D4C2729BD0CD1BD00C726E496A9
:20C6800088D689D0B292B12514DE829782D783C02882002506D07D927C2405DF827E0311D6
:20C6A0007E04F326037E04EEBD04F32014C603BD02EAD6C937D6C837D68B37D68A37868C26
:20C6C00036BD00C78D037E05C8BD07678D4008968E918A2202DE7ABD04C8251509DFC8395E
:20C6E00026FD86FF979EBD02A735810B270BC6048CC60E7E03137E0B493233D78A33D78B19
:20C7000033D7C833D7C98D03DFC839C63A865FD7585FDEC817D6589758A60027ED1127EADB
:20C7200008812227EF20F2BD0A19BD00C781882705C69EBD0B3F96AF26058DD2DFC839BDB6
:20C7400000C725857E05F6BD113B36818C2704818826A37A00B22604327E05F8BD00BF8D9A
:20C7600006812C27EE3139CE0000DF8E24F880309758968ED68F811822D758495849DB8FCA
:20C78000998E5849DB588900978ED78FBD00BF20DBBD0C29DF9EC6A9BD0B3F965C36BD0A3F
:20C7A000193246BD0A0F2749DEB19682A10222232506D683E103241B967C91B122152506B6
:20C7C000D67CD1B2220DE600BD0F01DEADBD105FCE00AFDFADBD109B07369F780FDEAD3557
:20C7E000DE9E32A7003232A70232A7039E783206397E1452BD087CBD00C72738274E819ADC
:20C80000275C819D2758812C2743813B2766BD0A19DEB1965C26DDBD15EFBD0F0ADEB19678
:20C820000BAB00910C23028D0B8D518D6320C86F00CE000F860D970B8D5B860A8D5737D648
:20C840000A27064F8D4F5A26FBD70B3339D60BD10D25048DDF201DC00E24FC50201136BDBA
:20C8600011388129266732819D2704D00B23058D1F5A26FBBD00BF2083BD0F0BBD107D5CF7
:20C880005A27C9A6008D0E08810D26F48DB020F086208C863F7D01112617368120250B96B0
:20C8A0000B910C26028D8D4C970B323716BDDF4433393F5245444F2046524F4D2053544110
:20C8C00052D40D0A00965F2707DE94DF8A7E0B49CE08B18DA4DE92DFC8397F0111812226E9
:20C8E0000ABD0B0AC63BBD0B3F8D91BD0E458D099610260F0C077E06358D988D937E03EC37
:20C90000DE96864F975FDF98BD0C29DF9EDEC8DF8EDE98A6002609965F264EBD08938DD96D
:20C92000DFC8BD00BFD65C271CDEC897588122270709863A9758862C9759BD0F11BD116C88
:20C94000BD07A82006BD1526BD1452BD00C72707812C27037E08C5DEC8DF98DE8EDFC8BD69
:20C9600000C7272ABD0B3D209FDFC8BD070B4D2614A601C606AA02274DA6039794A6049736
:20C98000950808080808A600818326DD2092DE98D65F27037E0615A6002706CE09A17E083C
:20C9A00079393F45585452412049474E4F5245C40D0A002605CE00002003BD0C29DF9EBDFB
:20C9C00002A72704C600204E35080808DF71BD143830A60797B3DE9EBD11C4BD1452DE7102
:20C9E0000808080808BD14AE30E007270CEE0CDF8A30EE0EDFC87E05C8C610BD030335BD3A
:20CA000000C7812C26F0BD00BF8DAF8D0C6D0D76005C288DC6187E0313DEC809DFC84FC65D
:20CA20003736C601BD02EABD0AEB7F00A2BD00C780A825148103241081014998A291A2254C
:20CA40005D97A2BD00BF20E8D6A2262D246B8B072467995C26037E102589FF16481B16CE8F
:20CA60000147BD030332A10024568DA1368D23DEA03226184D2771205078005C59DEC8092B
:20CA8000DFC8CE0A89D7A220DC640BBCA100243920DAA60236A601368D07D6A220827E0B04
:20CAA00049D6B3A60030EE00313137D6B237D6B137D6B037D6AF376E00CE0000324D272847
:20CAC00081642703BD0A0DDFA033815A271C817D271854D7603297B633D7B733D7B833D7CF
:20CAE000B933D7BAD8B3D7BBD6AF397F005C8D5624037E1526BD0C85245C812E27F481A285
:20CB0000274C81A127E881222608DEC8BD0F0B7E116C819F2611865ABD0A20BD0CD896B122
:20CB2000D6B243537E0E34819C26037E0E8D80AB24308D06BD0A19C6298CC6288CC62CDE01
:20CB4000C8A6001126037E00BFC6027E0313867DBD0A207E173BBD0C29DFB1965C268B7E37
:20CB6000143816588DE037C127251A8DCDBD0A198DCBBD0A0E32D6B237D6B13736BD113BDB
:20CB800032371620038DAB33CE0119BD0303EE00AD007E0A0D864F975ABD0CD8DEB1DF5880
:20CBA000BD1469BD0CD89658D6597D005A260694B1D4B220049AB1DAB27E0E34BD0A0F26F8
:20CBC0001096BA8A7F94B797B7CE00B6BD14AE20407F005C7A00A2BD107DD7AFDFB1DEB803
:20CBE000BD107F96AF10270786012403D6AF4097B307369F780F35DEB15C095A2604D6B310
:20CC0000200B3208A10027F3C6FF2401509E783206CB0159D4602702C6FF7E1492BD0B3DFC
:20CC2000168D0ABD00C726F5395FBD00C7D75B979ABD00C78D4F24037E0B495FD75CBD0081
:20CC4000BF25048D40250A16BD00BF25FB8D3624F78124260873005CCB80BD00BFD79B9BEA
:20CC60005E802826037E0CE97F005EDE7C969AD69B9C7E2719A1002604E1012748080808AC
:20CC800008080820EC81412504805B80A5393236810B2604CE0D0539DE80DFA5C606BD03A7
:20CCA00003DFA3DE7EDFA9BD02CEDEA3DF80DEA7DF7EDEA9969AD69BA700E7014FA702A766
:20CCC00003A704A7050808DF9C3990800000BD00BFBD0A0B96B32B7496AF81902508CE0C93
:20CCE000CABD14AE26667E14DA965B36965C365F37D69B37D69A378DD533D79A33D79B33E1
:20CD000030A60136A6003696B1A70096B2A7015CBD00C7812C27D9D75ABD0B3732975C3238
:20CD2000975BDE7E9C802729969AA1002606969BA1012709A602E603BD030420E7C612966F
:20CD40005B260BD65AE1042767C6108CC6087E0313860497BE7F00BD969AA700969BA70115
:20CD6000D65AE704BD02EADFA3C60B4F7D005B27063233CB018900A705E7068D6F97BDD7CE
:20CD8000BE08087A005A26E1BD030425BCBD02F0C02182009780D7814F09A7059C7126F994
:20CDA000DEA39680D0A4E70392A3A702965B263BE604D75A4F5F97BDD7BE3297B133D7B266
:20CDC000A1052506224CE106244896BE9ABD0C27048D19DBB299B108087A005A26D85849DF
:20CDE0005849CB058900BD0304DF9C39861097A7A6059778A60697794F5F58492514780077
:20CE0000BE7900BD2406DB79997825067A00A726E9397E0D499F789678D679CE00807D00E8
:20CE20005C270DBD107DBD0F86CE00829684D685E001A2007F005C97B0D7B1C6907E149953
:20CE4000D60B4F20EFDE8A0826A1C6167E03138D298DF2BD0B3AC680D75EBD0C298D2BBDD3
:20CE60000B37C6A9BD0B3FDEAB96C8D6C9A700E701969CD69D8D757E0706C69CBD0B3FC684
:20CE800080D75E8A80BD0C2FDFAB7E0A0D8DEBD6AC37D6AB37BD0B328DF033D7AB33D7ACF1
:20CEA000DEABC622EE0227A4DF9CA60336A60236A60136A60036BD1454DEABD6C937D6C833
:20CEC00037EE00DFC8D69D37D69C37BD0A0B33D79C33D79DBD00C727037E0B4933D7C8338F
:20CEE000D7C9DE9C32A70032A7013233A702E70339BD0A0DCE00FFBD15F23131CE00FE2081
:20CF00000ADFAD8D53DFB1D7AF390986229758975908DFBBDFB1C6FF5CA600270E0891589D
:20CF20002704915926F28122270109DFBDD7AF96BB26078DCCDEBBBD1061DE618C007126CE
:20CF400005C61E7E0313BD145486FF975CDF63DFB108080808DF61397F005D375386FFD988
:20CF6000859984918225112204D183250B9784D785DE8408DF863339C61A965D26C58D0619
:20CF800073005D3320D5DE88DF84CE0000DFABDE82DFA9CE00659C6127048D3B20F8DE7CFB
:20CFA0009C7E27048D2B20F8DFA3DEA39C80274EA602E603DBA499A397A3D7A4A6012AEA0C
:20CFC000E6044F58CB05BD03049CA327DF8D0820F8A60108082A22E600271EA6029184222D
:20CFE00018E6032504D185241091A9250C2204D1AA2306DFAB97A9D7AA0808080839DEAB1B
:20D0000027FB4FE6005ADBAA99A997A5D7A6DE84DFA3BD02D0DEAB96A7D6A8A702E703DEB7
:20D02000A7097E0F8896B23696B136BD0AEBBD0A0E3297BB3297BCDEBBE600DEB1EB002483
:20D0400005C61C7E0313BD0F01DEBBE6008D10DEAD8D2C8D0CDEBB8D26BD0F3A7E0A2DEE9A
:20D060000207369F780F35DE865C200432A700085A26F9DF869E78320639BD0A0EDEB1E6A2
:20D08000008D182613EE06099C84260A37DB8599849784D785330839EE02399C632609DF90
:20D0A0006109090909DF634F398D037E0E428DCA7F005C5D39BD113EC601BD0F5896B2BDFF
:20D0C0000F05A70031317E0F3A8DE32768E60020DA8D454FE1002303E6004F3736BD0F03F4
:20D0E000DEAD8D9B33BD030333BD106120D88D28A6001020DFC6FFD7B28D4C81292705BD0A
:20D100000B3D8D378D125F4AA10024CF16E00050D1B223C7D6B220C3BD0B3733D77833D77E
:20D120007931313233D7AD33D7AEDEADD67937D6783716263B7E0D4CBD00BFBD0A0BBD0C78
:20D14000D496B126F0D6B27E00C7BD10AE26037E122FBD0303A600366F00DEC8DFBDDE71CF
:20D16000DFC88DE3BD152632DE73A700DEBDDFC839BD0A0B8D07DF8EBD0B3D20BE96B32BD1
:20D18000B496AF819022AEBD14DADEB1398DEEE6007E0E428DDBDE8EE700398DD4D79E5FEA
:20D1A000BD00C727028DD1D79FDE8EA600989F949E27F839CE16E6200BBD13557300B37368
:20D1C00000BB2003BD13555D26037E1469CE00B6162761D0AF275E2B0A97AF96BA97B3CEC2
:20D1E00000AF50C1F82F4E4F6401BD12A8D6BB2A0963016302630343890097BC96B299B923
:20D2000097B296B199B897B196B099B797B0172A4025028D585F96B0262D96B197B096B2AD
:20D2200097B196BC97B27F00BCCB08C1202DE74F97AF97B3398D650C20B35C7800BC790016
:20D24000B27900B17900B02AF196AF1097AF23DF8C25057800BC200E7C00AF27277600B05A
:20D260007600B17600B224048D0F27EC397300B37300B07300B17300B2DEB108DFB126036D
:20D280007C00B039C60A7E0313CE0074A60397BCA602A703A601A70296B5A701CB082FEC04
:20D2A00096BCC008270A670166026603465C26F6398100000002801956AA807622F1823814
:20D2C000AA45803504F3813504F38080000080317218BD14832E037E0D4CCE12C296AF8008
:20D2E0008036868097AFBD11C4CE12C6BD13BCCE12B1BD11B9CE12B5BD17A1CE12CABD11CE
:20D30000C433BD15B1CE12CE8D4B27488D638600977597769777D6B28D0ED6B18D0AD6B03A
:20D320008D0BBD142F7E121526037E12890D9675562721241096779BB99777967699B89721
:20D3400076967599B74697757600767600777600BC0C20DA39A60197BA168A8097B7D8B36F
:20D36000D7BBA60297B8A60397B9A60097B6D6AF394D27199BAF464928138B8097AF26035F
:20D380007E123296BB97B33996B343200232322B037E122F7E1284BD1476270F8B0225F4C1
:20D3A0007F00BBBD11D07C00AF27E93984200000BD1476CE13AC5FD7BB8D7D8C8D97276A6D
:20D3C0007000AF8DAC7C00AF27CACE0075C603D75AC60196B091B7260D96B191B8260796C1
:20D3E000B291B926010D0759240CE700087A005A2B2E2728C60106250F7800B97900B87926
:20D4000000B725E22BCD20DE96B990B297B996B892B197B896B792B097B720DDC64020D6C1
:20D42000565656D7BC8D087E1215C6147E0313DE75DFB0967797B239E601D7B3CA80D7B0FC
:20D44000E600EE02DFB1D7AF39CE00A72006CE00A38CDE9E96AFA70096B38A7F94B0A70169
:20D4600096B1A70296B2A7033996BA97B3DEB6DFAFDEB8DFB139DEB0DFB7DEB2DFB996AFE5
:20D4800097B639D6AF2708D6B359C6FF250150398DF1D7B07F00B1C68896B08080D7AF8627
:20D4A0000097B297BC97B37E12117F00B339E60027D1E601D8B32BCFD6AFE1002617E601A6
:20D4C000CA7FD4B0E101260DD6B1E1022607D6B2E00326013956D8B320AFD6AF2741C09813
:20D4E00096B32A067300B5BD1270CE00AFC1F82E07BD129C7F00B5397F00B596B3497600CD
:20D50000B07E12A8D6AFC198241B8DCED7BC96B3D7B38080869897AF96B297587E1211D732
:20D52000B0D7B1D7B239CE0000DFB3DFAFDFB1DFA9DFA7256B812D26057300B42004812B05
:20D540002605BD00BF2559812E272D8145262EBD00BF256981A2270E812D270A81A12709F6
:20D56000812B270520087300AABD00BF254F7D00AA270A7000A920057300A826C596A99033
:20D58000A797A927142A0ABD13B07C00A926F82008BD13977A00A926F896B42A887E173BD6
:20D5A000D6A7D0A8D7A736BD139733C0308D022091BD144EBD1492CE00A37E11C4D6A958DB
:20D5C00058DBA95880301B97A9209E91434FF8947423F794742400CE02928D10968AD68B65
:20D5E00097B0D7B1C6900DBD149D8D037E0879CE01008620D6B32A02862DA70097B3DFBD92
:20D60000088630D6AF26037E16DE4FC1802208CE15D3BD130886FA97A7CE15CFBD14B82EBD
:20D6200010CE15CBBD14B82E10BD13977A00A720F0BD13B07C00A720E0BD11B4BD14DAC637
:20D640000196A78B072B08810824044A1686024A4A97A9D7A72E11DEBD862E08A7005D271B
:20D6600005863008A700DFBDCE16EAC68096B2AB0297B296B1A90197B196B0A90097B05C87
:20D68000565928E92403C00B50CB2F080808DF9CDEBD0817847FA7007A00A72605862E088F
:20D6A000A700DFBDDE9C53C4808C16FC26BFDEBDA60009813027F9812E270108862BD6A969
:20D6C000271E2A03862D50A7028645A701862F4CC00A24FBCB3AA703E7046F052004A700F6
:20D6E0006F01CE01003980000000FE7960002710FFFC18000064FFFFF6000001BD1476CEA3
:20D7000016E6BD143827614D26037E1230CE00ABBD14545F96BA2A10BD1504CE00AB96BA20
:20D72000BD14B8260343D658BD146B37BD12D2CE00ABBD13088D31324624AA96AF2703737B
:20D7400000B3398138AA3B0774942E40772E4F707A88026E7C2AA0E67EAAAA507F7FFFFFA2
:20D760008180000081000000BD144ECE17438D3D96AF818825037E1388BD150496588B81B7
:20D7800027F436CE12B1BD11C4BD1305CE00A3BD11B98DA7CE17478D177F00BB32BD137197
:20D7A00039DFBDBD144E8D058D08CE00A37E1308DFBDBD1449DEBDE600D7B408DFBD8DED64
:20D7C000DEBD08080808DFBDBD11C4CE00A77A00B426EB399835447A6828B146BD148317F6
:20D7E0002B14CE010DBD14384D27E8CE17D48DBDCE17D8BD11C4D6B296B097B2D7B07F003A
:20D80000B396AF97BC868097AFBD1215CE010D7E1454CE1881BD11C4BD1476CE1885D6BA90
:20D82000BD13B7BD1476BD15047F00BB96B6D6AFBD11BCCE1889BD11B996B3362A0ABD1138
:20D84000B496B32B06730060BD173BCE1889BD11C4324D2A03BD173BCE188D7E17A1BD1482
:20D860004E7F00608DB2CE00AB8DA4CE00A3BD14387F00B396608D06CE00AB7E13BC362041
:20D88000C781490FDB83490FDB7F00000004861ED7BA879926648723345886A55DE083498B
:20D8A0000FDA96B3362A028D2096AF3681812505CE12B18DC6CE18CD8DA13281812506CE8E
:20D8C0001881BD11B9324D2A037E173B3908783BD74A7B846E027C2FC1FE7D9A31747D5A2B
:20D8E0003D847E917FC87E4CBBE47FAAAA6C8100000000CE1A1FBD0879CEFFFFDF8A8E1BC5
:20D900001B9F827F0111BD0834CE0065DF61CE1AAABD0879BD08F9DFC8BD00BF814127D361
:20D920004D2615CE1AB7088637A700A10026174AA700A10027F0200EBD00C7BD07674D277C
:20D94000037E0B49DE8E09DF88DF84CE1A43BD0879BD08F9DFC8BD00BF16271CBD0767964F
:20D960008E26E8968F811025E2970C800E24FC40800E9B0C970D20088648970C8638970DE9
:20D98000C6CE86FFDB89998825037E03119782D783CE1A0ABD0879BD08F9DFC8BD00BFCEDD
:20D9A00018F28159272481412704814E26E3CE0D4CFF0133CE18A28141270FCE0D4CFF0172
:20D9C0002DFF0131FF012FCE18124FA70008DF7ADE822B058C1B1B2BB1DF82967AD67BBDBE
:20D9E00002F0BD0834D683D07B9682927ABD15E0CE1A52BD0879CE0879FF0113BD04E486BD
:20DA0000BD9704CE0500DF057E033C57414E542053494E2D434F532D54414E2D4154CE0044
:20DA20000D0A0C5752495454454E204259205249434841524420572E205745494C414E44F5
:20DA4000AE0D0A005445524D494E414C2057494454C80020425954455320465245C50D0A05
:20DA60000D0A4D49545320414C54414952203638302042415349432056455253494F4E20CF
:20DA8000312E312052455620332EB20D0A434F505952494748542031393736204259204DC7
:20DAA00049545320494E43AE0D0A004D454D4F52592053495AC50000204953204954205218
:20DAC000455455524E0D20424551204F55540D2042524120494E5441504520474554204E4A
:20DAE000455854204348415241435445520D20454E440D00FFFFFFFFFFFFFFFFFFFFFFFF83
:20DB0000FFFFFFFFFFFFFFFFFFFFFFFFFFFFFFFFFFFFFFFFFFFFFFFFFFFFFFFFFFFFFFFF25
:20DB2000FFFFFFFFFFFFFFFFFFFFFFFFFFFFFFFFFFFFFFFFFFFFFFFFFFFFFFFFFFFFFFFF05
:20DB4000FFFFFFFFFFFFFFFFFFFFFFFFFFFFFFFFFFFFFFFFFFFFFFFFFFFFFFFFFFFFFFFFE5
:20DB6000FFFFFFFFFFFFFFFFFFFFFFFFFFFFFFFFFFFFFFFFFFFFFFFFFFFFFFFFFFFFFFFFC5
:20DB8000FFFFFFFFFFFFFFFFFFFFFFFFFFFFFFFFFFFFFFFFFFFFFFFFFFFFFFFFFFFFFFFFA5
:20DBA000FFFFFFFFFFFFFFFFFFFFFFFFFFFFFFFFFFFFFFFFFFFFFFFFFFFFFFFFFFFFFFFF85
:20DBC000FFFFFFFFFFFFFFFFFFFFFFFFFFFFFFFFFFFFFFFFFFFFFFFFFFFFFFFFFFFFFFFF65
:20DBE000FFFFFFFFFFFFFFFFFFFFFFFFFFFFFFFFFFFFFFFFFFFFFFFFFFFFFFFFFFFFFFFF45
:20DC0000FFFFFFFFFFFFFFFFFFFFFFFFFFFFFFFFFFFFFFFFFFFFFFFFFFFFFFFFFFFFFFFF24
:20DC2000FFFFFFFFFFFFFFFFFFFFFFFFFFFFFFFFFFFFFFFFFFFFFFFFFFFFFFFFFFFFFFFF04
:20DC4000FFFFFFFFFFFFFFFFFFFFFFFFFFFFFFFFFFFFFFFFFFFFFFFFFFFFFFFFFFFFFFFFE4
:20DC6000FFFFFFFFFFFFFFFFFFFFFFFFFFFFFFFFFFFFFFFFFFFFFFFFFFFFFFFFFFFFFFFFC4
:20DC8000FFFFFFFFFFFFFFFFFFFFFFFFFFFFFFFFFFFFFFFFFFFFFFFFFFFFFFFFFFFFFFFFA4
:20DCA000FFFFFFFFFFFFFFFFFFFFFFFFFFFFFFFFFFFFFFFFFFFFFFFFFFFFFFFFFFFFFFFF84
:20DCC000FFFFFFFFFFFFFFFFFFFFFFFFFFFFFFFFFFFFFFFFFFFFFFFFFFFFFFFFFFFFFFFF64
:20DCE000FFFFFFFFFFFFFFFFFFFFFFFFFFFFFFFFFFFFFFFFFFFFFFFFFFFFFFFFFFFFFFFF44
:20DD0000FFFFFFFFFFFFFFFFFFFFFFFFFFFFFFFFFFFFFFFFFFFFFFFFFFFFFFFFFFFFFFFF23
:20DD2000FFFFFFFFFFFFFFFFFFFFFFFFFFFFFFFFFFFFFFFFFFFFFFFFFFFFFFFFFFFFFFFF03
:20DD4000FFFFFFFFFFFFFFFFFFFFFFFFFFFFFFFFFFFFFFFFFFFFFFFFFFFFFFFFFFFFFFFFE3
:20DD6000FFFFFFFFFFFFFFFFFFFFFFFFFFFFFFFFFFFFFFFFFFFFFFFFFFFFFFFFFFFFFFFFC3
:20DD8000FFFFFFFFFFFFFFFFFFFFFFFFFFFFFFFFFFFFFFFFFFFFFFFFFFFFFFFFFFFFFFFFA3
:20DDA000FFFFFFFFFFFFFFFFFFFFFFFFFFFFFFFFFFFFFFFFFFFFFFFFFFFFFFFFFFFFFFFF83
:20DDC000FFFFFFFFFFFFFFFFFFFFFFFFFFFFFFFFFFFFFFFFFFFFFFFFFFFFFFFFFFFFFFFF63
:20DDE000FFFFFFFFFFFFFFFFFFFFFFFFFFFFFFFFFFFFFFFFFFFFFFFFFFFFFFFFFFFFFFFF43
:20DE0000FFFFFFFFFFFFFFFFFFFFFFFFFFFFFFFFFFFFFFFFFFFFFFFFFFFFFFFFFFFFFFFF22
:20DE2000FFFFFFFFFFFFFFFFFFFFFFFFFFFFFFFFFFFFFFFFFFFFFFFFFFFFFFFFFFFFFFFF02
:20DE4000FFFFFFFFFFFFFFFFFFFFFFFFFFFFFFFFFFFFFFFFFFFFFFFFFFFFFFFFFFFFFFFFE2
:20DE6000FFFFFFFFFFFFFFFFFFFFFFFFFFFFFFFFFFFFFFFFFFFFFFFFFFFFFFFFFFFFFFFFC2
:20DE8000FFFFFFFFFFFFFFFFFFFFFFFFFFFFFFFFFFFFFFFFFFFFFFFFFFFFFFFFFFFFFFFFA2
:20DEA000FFFFFFFFFFFFFFFFFFFFFFFFFFFFFFFFFFFFFFFFFFFFFFFFFFFFFFFFFFFFFFFF82
:20DEC000FFFFFFFFFFFFFFFFFFFFFFFFFFFFFFFFFFFFFFFFFFFFFFFFFFFFFFFFFFFFFFFF62
:20DEE000FFFFFFFFFFFFFFFFFFFFFFFFFFFFFFFFFFFFFFFFFFFFFFFFFFFFFFFFFFFFFFFF42
:10DF0000CEC000FF7000CE0000FF7002FE7000A6C1
:10DF100000FE7002A700088C1F00270CFF7002FE95
:10DF2000700008FF700020E48603B783008615B7F1
:10DF300083007E0000B683004439F683005424FA3F
:10DF4000F6830139368602B5830027FB37C47FF795
:10DF50008301335D3239FFFFFFFFFFFFFFFFFFFF4C
:10DF6000FFFFFFFFFFFFFFFFFFFFFFFFFFFFFFFFC1
:10DF7000FFFFFFFFFFFFFFFFFFFFFFFFFFFFFFFFB1
:10DF8000FFFFFFFFFFFFFFFFFFFFFFFFFFFFFFFFA1
:10DF9000FFFFFFFFFFFFFFFFFFFFFFFFFFFFFFFF91
:10DFA000FFFFFFFFFFFFFFFFFFFFFFFFFFFFFFFF81
:10DFB000FFFFFFFFFFFFFFFFFFFFFFFFFFFFFFFF71
:10DFC000FFFFFFFFFFFFFFFFFFFFFFFFFFFFFFFF61
:10DFD000FFFFFFFFFFFFFFFFFFFFFFFFFFFFFFFF51
:10DFE000FFFFFFFFFFFFFFFFFFFFFFFFFFFFFFFF41
:10DFF000FFFFFFFFFFFFFFFFFFFFFFFFFFFFFFFF31
:10E400000FCE82006F016F038601A700867FA702EF
:10E41000C604E701E703A70009A600630043A100C3
:10E4200026F663008615094A26FC35860CEE088C14
:10E43000E44C2709C6FF30E70A084A26FA86043367
:10E440003330EE0CE7004A26F60C3131240DBDE6E0
:10E45000180D0A4552524F52210700BDE6180D0A09
:10E460004D4F4E3E20007D82002AFBBDE8E1CEE903
:10E47000EF080808A10025F926D236BDE86332C6A8
:10E480004C37C6E437E60237E601375FDEF239BDC6
:10E49000E6252404A707E706BDFE6BC60430EE0C94
:10E4A000A6003636863FA7005A26F2203E30A60642
:10E4B00026026A05E6054AA7069FF29EEC36860408
:10E4C00097EC32300808A10D2619E10C2615BDE69F
:10E4D000180D0A008604333330EE0CE7004A26F6A6
:10E4E0007EE5537A00EC26DCBDFE6B9FECCEE4ADFE
:10E4F0007EFEFC3086FFC6040808A1042604A105A0
:10E5000027055A26F30D39BDE6252404A705E7049F
:10E510000C39860497ECBDE6252504A607E60630EF
:10E520000808A1052604E10427077A00EC26F10D6E
:10E5300039C6FFE704E7050C39BDE6252509860144
:10E54000200536BDFE6B324A26F8BDE6180D0A00DE
:10E55000BDFE6B5FDEF286438D2686428D248641AA
:10E560008D2086588D1B86508D18865309DFECCE82
:10E5700000EB8D0CDEF2EE06DFECA6008D630C39AD
:10E58000085CBDE865863DBDE86520670808085C55
:10E5900008088B408DEA37BDE625242F8D051733FB
:10E5A0005A270809A700A10027010D395A37EE069E
:10E5B0008D732407363730EE0031310C3324058D4E
:10E5C000E2250A088D08378D5C23F10C3339A6004B
:10E5D00036DFEC8D430D0A00CE00EC8D2D325D2B25
:10E5E0000E8D665A2A095C8D2F444154413D00DE50
:10E5F000EC8D19C1012B202713200FC60630085AB5
:10E6000026FCC6048D045A26FB398D058D037EE851
:10E6100063375FBDE7E4333930EE003131375FBD3A
:10E62000E7C3336E005FBDE8A3241D363748594861
:10E6300059485948593736BDE8A32407331B3331AD
:10E640003120E8313133320D393616CEFF7508C02E
:10E650000824FBA600465C26FC32251E81302404DB
:10E660008120241481602511818D270C84BD818C2B
:10E67000270484308130C2FF5C5C39BDE618534CFE
:10E680004944452000BDE62524193637BDE625243A
:10E69000103637BDE62524073637BDE96D0C393114
:10E6A0003131310D39BDE62525028608163434BDD9
:10E6B000E8DE847F815326F7BDE8DE847F81392739
:10E6C0003634813126E9B7C16F4F30BDE8C2BDE8AD
:10E6D000C2BDE8C230EE01D7EC33C00337D6ECBD83
:10E6E000E8C2D7EC335A26F47FC16FD6ECCE00ECEB
:10E6F000BDE8C24C27B90D3131398B40BDE865BD4D
:10E70000E62516C47F2003CB095A3037BDE6252401
:10E710000BA703E702BDE625A705E704A605E60467
:10E72000EE02DFEE97F5D7F4335D2F07BDE82786BD
:10E7300007200286044A26FD37D6F496F590EFD2DC
:10E74000EE2558810FC2003324022003860F019763
:10E75000EC8B0497EDCEE7B65D2A03CEE7C08D6360
:10E76000CE00EE4F015D2B0309A50001018D75015F
:10E7700026F9DEEE8D627A00EC2AF943360186072F
:10E780004A26FD325D2B028D6EB682004349DFEED4
:10E79000DFEE229F083786064A26FD330186034AAC
:10E7A00026FDCEE7BB5D2B0D8D195D270886134A2C
:10E7B00026FD8D730C390D0A5331000D0A533900B3
:10E7C0000D0A00A600088D490186104A26FDA60004
:10E7D000086D0026F1082039AB003686055D2A0950
:10E7E000BDE86332AB00368606014A26FDA6008DE1
:10E7F0000632088C00F03936444444448D088612B1
:10E800004A26FD32840F810A24022003018B078BE4
:10E81000305D2F510C8D27360D468D1B014426FA95
:10E820008D1532080920100D368D1337C66E178DE1
:10E8300006014A26FA333236861501012003368650
:10E8400001378C861D4A26FD4C8D10861E4A26FDFA
:10E850000784018D075A26EB33323901B88202B79B
:10E86000820239862036378D210D8D320C8D2F0D89
:10E87000468D2B4426FB8D263332810A260B364FDC
:10E880008DE38DE18DDF8DDD323936C601B6820034
:10E8900043840E442706564A26FCC0053239378D7C
:10E8A0007220688D3C812027FA8030250C810A2552
:10E8B000108011810625088B118B30810D0C398059
:10E8C000F639368D19847F8DE04848484897EC8D9D
:10E8D0000D847F8DD49BECA70032AB0008395D2EF0
:10E8E00054378DA6177EEB507D82002BFB8D1525AE
:10E8F000F71686808D0E4624FB8D0925037C820049
:10E90000847F3339378D0CCB80C080C900F78200FB
:10E91000563339C5FE26115A2702C638C831368605
:10E92000124A26FD5A26F832BCE913015A26F9F696
:10E930008200C4FE3937548D1E25FC5A2AF93386CD
:10E940007F37368D125A26FB32334625F437368D03
:10E95000065A26FB323339B682028D02240E375F07
:10E960005CB1820227FAB68202C11D333930EE0251
:10E97000277430A605E604A007E206252426034DE9
:10E98000276486FF163637AB03E9023637AB05E955
:10E9900004A705E7043332AB07E906A707E706201B
:10E9A0000E86015F36374FA003E202A703E702306D
:10E9B000EE08A60030EE06A70030A601E600AB097F
:10E9C000E908A709E708A601E600AB07E906A707DB
:10E9D000E706A601E600AB05E904A705E70426CF94
:10E9E0004D26CC313130EE003131313131313131E0
:10E9F0006E0054E70753E55052E55350E70A4DE5E2
:10EA0000AC4CE6A549E5AD48E4F347E48F45E5396C
:10EA100044E70943E51242EC0318E58E14E6FA13C5
:10EA2000E67B10E58C08E5FB03E59202E59101E544
:10EA30009000FC000F8D4935316F000926FB6F00F7
:10EA40009FEE8E00EBBDFCBCCE00EEC602BDFD7B92
:10EA50004F5ABDFE2036BDFD4332DEEEA100261327
:10EA60006C00098C00F12603CE00DF8CFFFF26EC42
:10EA70004C20DFDFEEBDFCBCCE00EE5CBDFD7B3E7E
:10EA800036CE8000865509A700A10026F93239C686
:10EA9000088D428E00EB37BDFC864785CE00EEC662
:10EAA00002BDFCBCBDFD25BDFC860EFDBDFCBCCE83
:10EAB00000F4BDFD2533BDE7297EFC00C6088D1599
:10EAC0008DBE3531BDE6AD24F0BDFCBCBDFE524F60
:10EAD00005051D853ECE82006F016F038680A7006D
:10EAE00043A7028604A70339BDE6180D0A4D454524
:10EAF00047414E0020F28601B78200C604F782012A
:10EB0000BDE6180D0A54484953204953204120546A
:10EB100045524D494E414C20544553540020E1B6D6
:10EB20008200434924067D82002BFB0D39C608BDB7
:10EB3000E6AD24037EE44E39CE0000DFEEDE24DFB6
:10EB4000F4C608BDE72939FFFFFFFFFFFFFFFFFF06
:10EB5000165427015C7EE8E8FFFFFFFFFFFFFFFF81
:10EB6000FFFFFFFFFFFFFFFFFFFFFFFFFFFFFFFFB5
:10EB7000FFFFFFFFFFFFFFFFFFFFFFFFFFFFFFFFA5
:10EB8000FFFFFFFFFFFFFFFFFFFFFFFFFFFFFFFF95
:10EB9000FFFFFFFFFFFFFFFFFFFFFFFFFFFFFFFF85
:10EBA000FFFFFFFFFFFFFFFFFFFFFFFFFFFFFFFF75
:10EBB000FFFFFFFFFFFFFFFFFFFFFFFFFFFFFFFF65
:10EBC000FFFFFFFFFFFFFFFFFFFFFFFFFFFFFFFF55
:10EBD000FFFFFFFFFFFFFFFFFFFFFFFFFFFFFFFF45
:10EBE000FFFFFFFFFFFFFFFFFFFFFFFFFFFFFFFF35
:10EBF000FFFFFFFFFFFFFFFFFFFFFFFFFFFFFFFF25
:10EC00007EED007EED257EE8E17EE8657EEB1F0867
:10EC100015008020A6005F39A70039ED98ED9BED27
:10EC2000EEEE12EE3BEE0BECFCECD7ECDBEC89EC01
:10EC3000A6ECA9EC77EC80EFABEFB0EF00EF10EFB4
:10EC4000CEEF99EF8EEEC2EECFEECDEEE5EE6BEFAE
:10EC500023EF49ECFCF0D7F045F0BAF0C2F128F010
:10EC6000ADF0CBE400F159EB2DEB38F1B1ED12EF43
:10EC70007EED25ECB9EFA68D2D97BCD7BD7EEFD7E5
:10EC8000BDEFFC96BCD6BD20048D1B8D00DEC209F5
:10EC9000E7002002DEC209A700DFC23696C191C399
:10ECA0003225597EED5C8D0117C601DBC3C1802280
:10ECB000F2DEC27C00C3E600398D058DD71720D463
:10ECC0008606169BC3818022DADEC297C3A605366C
:10ECD000095A26F907363B8D1C20B98D18368D153B
:10ECE000163220A99BC397BD7F00BC8DBCDEBCA69D
:10ECF00000E700209FDE2AA60008DF2A4D39F26ACD
:10ED0000CE0100DF20BDEA80DF22BDE61848544274
:10ED100031009620D621FBEC1389009724D725DEFD
:10ED2000206F006F019E22BDF12CFEECFEDF2ACE8B
:10ED30000080DFC2CE0030DFC09F268DB88D072057
:10ED4000FA8C009920F3CEEC17DFBC813024568179
:10ED50000825914897BDDEBCEE176E00BDF12C86EC
:10ED60002197C1BDEC09868097C3D62B962AF0EC7B
:10ED7000FFB2ECFEBDF04296C0270FCEED93DF2A26
:10ED8000BDF0AD9628D629BDF0428607BDEC099EA0
:10ED900026209420415420807A00BC7D00BC27BCF2
:10EDA000DEBCDF2A398140242336BDECF5BBECFF05
:10EDB00097BD32168407B9ECFE97BCC40826E1DE85
:10EDC0002A972AD6BDD72BDFBC7EEFD71644444402
:10EDD00044840E97BDDEBCEE174FC160C41F2402F1
:10EDE000CAE02706DB2BD7BD992A97BC6E00DE2C24
:10EDF000DFB88D368D2A16BDECF52A02CA801126A1
:10EE0000044D2AEE39DEB8DF2C20908D1D810D26B1
:10EE1000F8398D16815A2EF181412DED48BDEC94C3
:10EE2000DE2CA60008DF2C810D398DF4812027FA15
:10EE300009DF2C81300C2D02813A398DED24CACEA8
:10EE40000000DFBC8DDA3696BCD6BD58495849DB88
:10EE5000BD99BC5849D7BD33C40FDBBD890097BCF1
:10EE6000D7BD8DC625DE96BC7EEC8D8D73A6024780
:10EE700049A20297BC97BD16EB03E70316E902E728
:10EE800002A80097BE2A028D3BC611A600AA012641
:10EE9000037EED5C96BDA0013696BCA2003698BC00
:10EEA0002B093297BC3297BD0D200332320C690317
:10EEB00069027900BD7900BC5A26D98D207D00BE3B
:10EEC0002A0ADEC2600126026A006300398DF38DD2
:10EED0000FE603EB01A602A900A702E7037EECA957
:10EEE000C6047EECAB8DF9861097BC4F5F5849681D
:10EEF0000169002404EB03A9027A00BC26EF20D9A3
:10EF00008DDBD7BD7F00BCDEBCA600E6017EEC8DAC
:10EF1000C6038DCEE6016F01A600EE01A700E70152
:10EF20007EECA68DFB37C6038DB87C00C37C00C386
:10EF300033E002A2012E0B2D055D2704200467009B
:10EF400067006700241B7EECF596C0271DBDEE20F0
:10EF500026FB8D1D27118D32BDEC0C2505DEC4DF8F
:10EF60002A39FEECFEDF2A7EED5C9E2697BF7EED01
:10EF70002ABDEE209728BDEE209729DE2839DE2015
:10EF8000DF2C8DED27E1DE2ADFC40797C039BDF005
:10EF90001A27C3DEBCDF2820CE8D61306C016C01E6
:10EFA000BDF02526EE398D54DF2A39CE002C200302
:10EFB000CE002EA60181802408A6002604DE2C2087
:10EFC0000ADE2C962E972C962F972DDF2E39306C3B
:10EFD000016C01DE28DFBC343430A602A700A60392
:10EFE000A70196BCA70296BDA703CE00249FBCA68E
:10EFF0000190BDA60092BC25207EED5C300808087B
:10F000009C2227F5EE01DFBC3037C604A603A70516
:10F01000095A26F8333131DEBC39BDECA6D7BD978D
:10F02000BC9ABD27D4DE20DF2CBDEF712711D62975
:10F030009628D0BD92BC2407BDEE2026FB20EA9C7A
:10F04000BC39BDEC8DDEC26D002A07BDEEC2862D37
:10F050008D464F36C60F861A36373637BDECA6308A
:10F060006C00C010822724F86A01CBE8890324F8D9
:10F070006C02C064820024F86A03CB0A24FA7F0081
:10F08000BE324D27048D0320F817811026057D0020
:10F09000BE27177C00BE8A307C00BF2B0ADFBA3740
:10F0A000BDEC0933DEBA397A00BF398DEBBDECF522
:10F0B0002AF920E4812227F28DDEBDEE2026F57E9E
:10F0C000ED5CD6BF2BE4CAF8502003BDECA65A2D48
:10F0D000D986208DC320F7DE2CDFB8DE20DF2CDEC2
:10F0E000248D2C27028D28962CD62DD0B792B624AD
:10F0F00032BDEF71272D9628D629BDF04286208D8E
:10F100004BBDEC0C251DBDEE2026F48D1B20D80830
:10F11000DFB6DEC28C00802709BDF01ADE2C09099B
:10F12000DF2C39DEB8DF2C3996BF2BF6860D8D1912
:10F13000F6EC11582708378D09335A5A26F8860AF3
:10F140008D0A4F7DEC112A01437F00BF7EF098B6F7
:10F15000EC1220014F97BF200ACE0030DF2CDFBC1D
:10F16000BDEC8D98809780BDEC06847F27F5817F6C
:10F1700027F1810A27D9811327DADEBCB1EC1027E9
:10F180000AB1EC0F260C8C00302615DE2C860D7F84
:10F1900000BF9CC2260686078DB220C7A7000808BC
:10F1A00009DFBC810D26BCBDF12896BD97C17EEC60
:10F1B000A6BDEFC1BDF01A07BDF11CDFB8DEBCDF94
:10F1C000B65F06260BBDEF71C6FE5ABDEE2026FACD
:10F1D000CE0000DF28BDEFC1860DDE2CA100270C7C
:10F1E000CB035C08A10026FADEB6DF28DEB8DFBC60
:10F1F0005D27552A23962F1B97B9962E89FF97B81E
:10F20000DE2EE6009C24273C9C26273808DF2EDED5
:10F21000B8E70008DFB820E8DB25D72F860099245F
:10F22000972ED027922625067A002B7EED5CDE2EC7
:10F23000DFB8DE24A60009DF24DE2EA70009DF2EBA
:10F240009CBC26EEDEB8DF24DE282719DEBC96281B
:10F25000D629A70008E70008DFBCBDEE20DEBCA76A
:10F2600000810D26F29E267EED2A243A912710E198
:10F2700059C52A5610112C8B4C45D4A080BD30BCEA
:10F28000E0131D9447CF8854CF30BCE01011168096
:10F290005355C230BCE014169050D283494ED4E589
:10F2A0007188BBE11D8FA221586F83AC225583BAB0
:10F2B0002493E0231D30BC20489149C630BC313432
:10F2C00030BC84544845CE1C1D380D9A494E5055CB
:10F2D000D4A010E7243F209127E15981AC30BC1322
:10F2E0001182AC4DE01D895245545552CEE0151D9A
:10F2F00085454EC4E02D984C4953D4EC24000000C1
:10F30000000A801F2493231D30BCE15080AC598536
:10F310005255CE380A86434C4541D22B845245CDB6
:10F320001D395700000085AD30D3176481AB30D351
:10F3300085AB30D3185A85AD30D319542F30E285C0
:10F34000AA30E21A5A85AF30E21B542F97524EC4AE
:10F350000A8080120A09291A0A1A851813098012CC
:10F360000B313061730B0204020305031B1A190BE6
:10F3700009060A00001C172F8F5553D280A830BCF5
:10F38000312A312A80A92E2FA2122FC12F80A83016
:10F39000BC80A92F83AC38BC0B2F80A8522F84BD12
:10F3A00009022F8EBC84BD09032F84BE09052F09D5
:10F3B000012F80BE84BD09062F84BC09052F0904D6
:10F3C0002F844259C526864C4F41C4281D8653417F
:10F3D00056C5291DA080BD3814FFFFFFFFFFFFFFAA
:10F3E000FFFFFFFFFFFFFFFFFFFFFFFFFFFFFFFF2D
:10F3F000FFFFFFFFFFFFFFFFFFFFFFFFFFFFFFFF1D
:10F400007EF5F4CE00FA200E363730EE00E60086A8
:10F410003FA700CEF638378D4225ED7EF6334F5CA0
:10F420003637308D36240AA707E7068D2EA705E765
:10F430000432A60736A606367EF5D65A37EE068D76
:10F440001A2407363730EE0031310C3324038D4354
:10F4500008BDF545378D0423F233395F8D6A241CCE
:10F460003637485948594859485937368D5A24072C
:10F47000331B33313120E9313133320D390808087B
:10F480005C08088B408D36378DD124CD8D05173320
:10F490005A270709A700A100264D39BDF6A7BDF6DA
:10F4A0007186438D1886428D1686418D1286588D41
:10F4B0000D86508D0A865309DFEECE00ED085C8D77
:10F4C0006C863D8D687EF55D8D56812027FA8030F3
:10F4D000250C810A256E8011810625668B118B30E3
:10F4E000810D0C394C270ABDF594863F7EF6180134
:10F4F000018D2D815326FA8D278039274780F826E4
:10F50000F08D2CC002D7F28D2637378D2230E701DF
:10F51000EE0031318D197A00F227C9E7000820F496
:10F52000B683004424FAB68301817F27F3203A365C
:10F530008D9624B348484848168D8D24AA1B163250
:10F540001B3980F639A600368D4ACE00EE8D143276
:10F550005D2B06BDF6755A2B8EDEEE8D08C1012B94
:10F560001927028D188D16862037C602F5830027CD
:10F57000FB36847FB78301324D3339EB00A6000898
:10F5800036444444448D0332840F810A25028B079C
:10F590008B3020D5DFEECEF78E2051C10F2502C66D
:10F5A0000F37E6028DF05D27098D413337CB041705
:10F5B0008DCE30088DC58DC3306D0326028DA8EE2B
:10F5C000018DB8306C0226026C016A002AEA326DA5
:10F5D000032703108DAA30E606A605E001A200224B
:10F5E000BE24B83232324D270ACEF78CA600088DE1
:10F5F000A12AF9398603B783000101018E00CB9F50
:10F60000F09EF2DEF57F00F58CF638260A3230EEF9
:10F61000003131A70026F64F8E00E9C615F78300AA
:10F62000CEF7858D3420F00808086D00261B8D77F5
:10F63000CEF6389FF27EF709309FF09EF2A606269E
:10F64000026A05E6054AA70630E10126DAA102268C
:10F65000D6BDF594BDF49E20AA8D94BDF520364A02
:10F6600008A10525FB26B0BDF56732E61337C6F4C1
:10F67000375FDEF0393616CEF7AD08C00824FBA69A
:10F6800000465C26FC32251E81302404812024148F
:10F6900081602511818D270C84BD818C27048430E5
:10F6A0008130C2FF5C5C399FEE8DC7A60736A60687
:10F6B00036EE06863F3636A60236A60136A6003658
:10F6C0008DB32770302502E7018601C1022E06277F
:10F6D00002A701A7024FEB06A905A705E7068D9231
:10F6E000A706E707C606323684CF818D32274881C8
:10F6F0006E275B817E275E81392762813B276C8183
:10F700003F276EAF0636CEF712867E97F4DFF59E62
:10F71000F03B30EE05084F5F9CEE260C09EE000929
:10F72000E6002A014330EE05EB01A90030A705E70A
:10F730000609DFF09EEE39818D2602865F803F3616
:10F740000909DFF0A603A701085A2AF82090334FD1
:10F75000EB05A9048C3233A706E70720D70808DF9A
:10F76000F0A603A705095A2EF820C9085A2AFC203A
:10F77000C1A607A700095A2AF88A10A701DFF0C618
:10F78000FA860020D20D0A4D4F4E3EA053390D8A05
:10F7900053B152514F4C4B484643170F0B020100D7
:10F7A0009B9E1F3BF03C031E7F7DEF8382819C006C
:10F7B0003CAF400000AC641264126410641011018C
:10F7C000100410001000110D100C100C100CFFFF95
:10F7D000FFFFFFFFFFFFFFFFFFFFFFFFFFFFFFFF39
:10F7E000FFFFFFFFFFFFFFFFFFFFFFFFFFFFFFFF29
:10F7F000FFFFFFFFFFFFFFFFFFFFFFFFFFFFFFFF19
:10F80000FFFFFFFFFFFFFFFFFFFFFFFFFFFFFFFF08
:10F81000FFFFFFFFFFFFFFFFFFFFFFFFFFFFFFFFF8
:10F82000FFFFFFFFFFFFFFFFFFFFFFFFFFFFFFFFE8
:10F83000FFFFFFFFFFFFFFFFFFFFFFFFFFFFFFFFD8
:10F84000FFFFFFFFFFFFFFFFFFFFFFFFFFFFFFFFC8
:10F85000FFFFFFFFFFFFFFFFFFFFFFFFFFFFFFFFB8
:10F86000FFFFFFFFFFFFFFFFFFFFFFFFFFFFFFFFA8
:10F87000FFFFFFFFFFFFFFFFFFFFFFFFFFFFFFFF98
:10F88000FFFFFFFFFFFFFFFFFFFFFFFFFFFFFFFF88
:10F89000FFFFFFFFFFFFFFFFFFFFFFFFFFFFFFFF78
:10F8A000FFFFFFFFFFFFFFFFFFFFFFFFFFFFFFFF68
:10F8B000FFFFFFFFFFFFFFFFFFFFFFFFFFFFFFFF58
:10F8C000FFFFFFFFFFFFFFFFFFFFFFFFFFFFFFFF48
:10F8D000FFFFFFFFFFFFFFFFFFFFFFFFFFFFFFFF38
:10F8E000FFFFFFFFFFFFFFFFFFFFFFFFFFFFFFFF28
:10F8F000FFFFFFFFFFFFFFFFFFFFFFFFFFFFFFFF18
:10F90000FE01006E00FE01066E00860D8D67018609
:10F910000A8D628D63815326FA8D5D813927258199
:10F920003126F07F010A8D2D8002B7010B8D188DD5
:10F93000247A010B2705A7000820F47C010A27D3AD
:10F94000863F8D317EF9E38D0CB7010C8D07B70131
:10F950000DFE010C398D5348484848168D4C1B1636
:10F96000FB010AF7010A3944444444840F8B308177
:10F970003923028B077EFAAE7EFA9A8DF808A6002C
:10F98000810426F7398DC0CEFA8F8DF2CE010C8D11
:10F9900037FE010C8D34FF010C8DDD812026E88DB2
:10F9A000B409A700A10027DF20968DCC80302B94CE
:10F9B00081092F0A81112B8C81162E88800739A688
:10F9C000008DA4A6000820A38DF58DF3862020A528
:10F9D0008E0142BF01088603B7830001010186152D
:10F9E000B783008E0142CEFA8F8D938D8B168DDCFE
:10F9F000C14C26037EF90AC14D278AC1522718C17E
:10FA0000502732C14726DCBE01083BBF0108306DDC
:10FA10000626026A056A06FE0108088DAD8DAB8DCB
:10FA2000A98DA58DA3CE01088D9E20B70D0A533157
:10FA30000401010101FE0102FF010FB60105B00141
:10FA400010F60104F2010F260481102502860F8BA7
:10FA500004B701118003B7010ECEFA2CBDF97E5F09
:10FA6000CE01118D25CE010F8D208D1EFE010F8D33
:10FA7000197A010E26F9FF010F5337308D0C33FE32
:10FA8000010F09BC010426B320A0EB007EF9BF0DD5
:10FA90000A2A04FF0112390101018DF7B6830047DC
:10FAA00024FAB68301847F817F27F18D013936B630
:10FAB0008300474724F932B7830139FFFFFFFFFF77
:10FAC000FFFFFFFFFFFFFFFFFFFFFFFFFFFFFFFF46
:10FAD000FFFFFFFFFFFFFFFFFFFFFFFFFFFFFFFF36
:10FAE000FFFFFFFFFFFFFFFFFFFFFFFFFFFFFFFF26
:10FAF000FFFFFFFFFFFFFFFFFFFFFFFFFFFFFFFF16
:10FB0000B683004724FAB68301847F817F27F17E84
:10FB1000FBAE8DEC81302B5281392F0A81412B4A6B
:10FB200081462E468007398615B7830086118D7E63
:10FB30008DCE815326FA8DC881392725813126F053
:10FB40007F01328D368002B701338D218D2D7A01F0
:10FB5000332705A7000820F47C013227D3863F8D88
:10FB60004D8615B7830086138D447EFBDB8D0CB765
:10FB700001348D07B70135FE0134398D9548484869
:10FB800048168D8E840F1B16FB0132F70132398D1A
:10FB9000DC8D348D308DE409A700A10026BF203B09
:10FBA00044444444840F8B30813923028B0737F659
:10FBB0008300575724F9B783013339A6008DE1A696
:10FBC000008DE108398DF4862020E330FF0130C636
:10FBD000098DF25A26FB8615B783008E0128860D03
:10FBE0008DCC860A8DC8BDFB00168DDBC14C26036B
:10FBF0007EFB27C14D2798C15027D0C14726DC3B4B
:10FC00008E00EBBDFD8D4E673E003EE7CE00CBDFA4
:10FC1000F286FFC608365A26FC97EE86193686FC11
:10FC200036BDFDF47D00EE2708810F27F4810B27F8
:10FC3000F0DFECCEFFB408084A2AFBA60136A60086
:10FC400036DEEC96EE39CE00E286FFC6040808A147
:10FC5000002604A101270E5A26F3BDFD8D00473E64
:10FC60000E0EA04C39DFEE8D1D1F858D084C39DF3F
:10FC7000EE8D133D9D8D45DEEEC6027EFD25DFEE49
:10FC80008D0477BD20EFCE812F7EFE50DEF2080876
:10FC9000080808088DD98D244FC606BDFE3A5A269D
:10FCA000FA8D19BDFE6BC60430EE08A60036368606
:10FCB0003FA7005A26F2CEFCCE7EFEFCDFECCE81C2
:10FCC0006FDFF0DEEC39CE00EE8DB3DEEE39309F23
:10FCD000F2A60626026A054AA706E605D7EC97EDC6
:10FCE0000C8E00D9C604323230EE089CEC26010D91
:10FCF000A7005A26F124ACDEEC8DC1DFEECE00EE7B
:10FD0000C6028D03EE005A7EFD7B8DBA8DEB8D0B06
:10FD10000820F98DB10908080920DE5D2706368D17
:10FD2000228D02323937860858BDFE3A5A26FA33F8
:10FD30008D1137BDFE09A700085A26F73317094A67
:10FD400026FC393796F18B205A26FB97F133398DF3
:10FD50003B309520168D35770D0DFD20108D2D77BC
:10FD60000D0D9F20098D25678D4C4C5C4C4C5C8B98
:10FD700002DEF2084A26FC8D024C3937A600BDFE91
:10FD800020085A26F73317094A26FC395FCE816FBF
:10FD90007EFE50BDFCBCDEF2C6204FE50127014CC3
:10FDA000BDFE285626F44C398DE25BE7D6F3CB072F
:10FDB00099F28D6C175F8D6886013937F68003B62E
:10FDC0008006484848594859485937F68005C41FA5
:10FDD0001B334353DFECCEFFA51127112406361742
:10FDE00033CEFFAD5D2606084822FC27010CA60095
:10FDF000DEEC333937C6208DC225FA5A26F9C620E3
:10FE00008DB924FA5A26F933398DE98D1B484848B3
:10FE10004837168DDF8D111B33368D9F25FC323907
:10FE200036444444448D013236840FDFECCEFF95D6
:10FE3000084A2AFCA6008D043239DFECDEF037498F
:10FE400049C61049A700095A26F9DFF0DEEC33391C
:10FE5000DFF030EE003131A6008DDF084D2AF84F7B
:10FE60006E008D07DEF2EE067EFCF99FEEDEF2A656
:10FE70000736A60636EE06863F3636A60236A601B9
:10FE800036A6003616CEFF7508C00824FBA600462D
:10FE90005C26FC3236251E81302404812024148106
:10FEA000602511818D270C84BD818C2704843081CD
:10FEB00030C2FF5C5C2770302502E7018601C10279
:10FEC0002E062702A701A7024FEB06A905A705E703
:10FED00006DEF2A706E707C606323684CF818D32EA
:10FEE0002748816E275B817E275E81392762813BAF
:10FEF000276C813F276EAF0636CEFF05867E97F4CE
:10FF0000DFF59EF23B30EE05084F5F9CEE260C09B4
:10FF1000EE0009E6002A014330EE05EB01A90030AE
:10FF2000A705E70609DFF29EEE39818D2602865F7E
:10FF3000803F360909DFF2A603A701085A2AF820F4
:10FF400090334FEB05A9048C3233A706E70720D581
:10FF50000808DFF2A603A705095A2EF820C9085A97
:10FF60002AFC20C1A607A700095A2AF88A10A7016F
:10FF7000C6FA860020D49C003CAF400000AC64125E
:10FF80006412641064101101100410001000110DAF
:10FF9000100C100C100C7E306D79335B5F707F7B22
:10FFA000771F4E3D4F47070A0D0205080B0E03064B
:10FFB000090C0F000104FC45FD55FD5DFD65FD4F7D
:10FFC000FD93FDA8FC96FE62FC46FD0AFD18FD1B94
:10FFD000FC8CFD13FD16FFFFFFFFFFFFFFFFFFFF80
:10FFE000FFFFFFFFFFFFFFFFFFFFFFFFFFFFFFFF21
:10FFF000FFFFFFFFFFFFFFFF00F700F400FDFC0025
:00000001FF
